:100000000C94DA000C94F7000C94F7000C94F700B1
:100010000C94F7000C94F7000C94F7000C94F70084
:100020000C94F7000C94FC000C94F7000C94F7006F
:100030000C94F7000C94F7000C94F7000C94F70064
:100040000C94F7000C94F7000C94F7000C94F70054
:100050000C94F7000C94F7000C94F7000C94F70044
:100060000C94F7000C94F7000C94F7000C94F70034
:100070000C94F7000C94F7000C94F7000C94F70024
:100080000C94F7000C94F7000C94F7000C94F70014
:100090000C94F7000C94F7000C94F7000C94F70004
:1000A00064027E0271028B029802B202A502CC02A7
:1000B000BF026E616E00696E660000407A10F35AEE
:1000C00000A0724E18090010A5D4E80000E8764898
:1000D000170000E40B54020000CA9A3B000000E144
:1000E000F505000080969800000040420F000000D7
:1000F000A08601000000102700000000E8030000B7
:1001000000006400000000000A0000000000010080
:10011000000000002C76D888DC674F0823DFC1DFA1
:10012000AE59E1B1B796E5E3E453C63AE6519976A4
:1001300096E8E6C28426EB898C9B62ED407C6FFCDE
:10014000EFBC9C9F40F2BAA56FA5F490055A2AF720
:100150005C936B6CF9676DC11BFCE0E40D47FEF529
:1001600020E6B500D0ED902E030094357705008091
:10017000841E080000204E0A000000C80C333333F0
:10018000330F986E12831141EF8D2114893BE65590
:1001900016CFFEE6DB18D1844B381BF77C1D901D73
:1001A000A4BBE424203284725E228100C9F124ECD5
:1001B000A1E53D2711241FBECFEFCDBFDFE3DEBF9A
:1001C00018E2A0E0B8E2E8E3F3E102C005900D9286
:1001D000AE30B107D9F728E2AEE0B8E201C01D9217
:1001E000A332B207E1F70E940B010C9453090C945F
:1001F00000000E948F0108951F920F920FB60F9278
:1002000011248F9380E180930B0A8F910F900FBE82
:100210000F901F9018950E94F9002FEF81E19AE747
:10022000215080409040E1F700C0000084E00E942F
:100230001D0386B3806286BB2FE382E49FE02150DA
:1002400080409040E1F700C00000F3CF80E00895C7
:1002500040E068ED81E690E00E94AA0180E0089508
:1002600080E0089580E008C0E82FF0E0E05FFB4FF9
:100270009081986090838F5F8830B0F380E008C0F1
:10028000E82FF0E0E05DFB4F9081986090838F5FF6
:100290008830B0F380E008C0E82FF0E0E05BFB4F6F
:1002A0009081986090838F5F8830B0F380E008C0C1
:1002B000E82FF0E0E059FB4F9081986090838F5FCA
:1002C0008830B0F380E008C0E82FF0E0E057FB4F43
:1002D0009081986090838F5F8830B0F380E008C091
:1002E000E82FF0E0E055FB4F9081986090838F5F9E
:1002F0008830B0F3089584B18D7F84B9E1E3F4E0F0
:100300008081877F808385B18E7F85B984B181604C
:1003100084B90E94B80108950E94B00108950E9416
:1003200032018DB18F778DB98CB180688CB985B36E
:100330008F7D85BB84B3806284BB0E9428010E94AC
:100340007B010E948C010E9430010E94AE010E943C
:1003500026010895FC0164BF4083089580E008955C
:10036000E0E0FAE080E1818381E0808380E008952D
:10037000E0E6F8E086EB92E08087918780EC868368
:1003800080E098E280931F289093202880E00895D1
:100390009091640895FFFCCF8093620808950E94B5
:1003A000C80180E090E00895BC0120E030E008C082
:1003B0009091640895FFFCCF409362082F5F3F4FF8
:1003C000FB01E20FF31F40814111F2CF0895009726
:1003D000C1F1DC011696ED91FC911797309799F1D8
:1003E00014968D919C911597892B49F48AEA92E590
:1003F0009F938F9309950F900F9083E008958D91AF
:100400009C911197892B49F486EC92E59F938F93E9
:1004100009950F900F9083E0089512968D919C910D
:100420001397892B49F482EF92E59F938F93099557
:100430000F900F9083E0089581E01E968C9380E0EA
:10044000089582E0089583E008950F931F93CF935A
:10045000DF938C01D62FC0E01AC080E890E00C2E0C
:1004600002C0959587950A94E2F72D2F30E08223FC
:100470009323892B29F0D801ED91FC91099506C0B1
:10048000D8011296ED91FC9113970995CF5FC83072
:1004900020F3DF91CF911F910F910895CF93DF93B8
:1004A000009709F486C0FC012685213009F083C03D
:1004B000462F50E04930510508F07FC0EC01FA01A9
:1004C000E05BFF4F0C94680760E00E9425026FEF2D
:1004D000CE010E94250260E0CE010E94250280E04C
:1004E0006DC060E00E94250260E0CE010E942502FE
:1004F0006FEFCE010E94250280E060C06FEF0E9486
:10050000250260E0CE010E94250260E0CE010E943B
:10051000250280E053C06FEF0E9425026FEFCE01ED
:100520000E94250260E0CE010E94250280E046C0C4
:1005300060E00E9425026FEFCE010E9425026FEF5E
:10054000CE010E94250280E039C06FEF0E94250293
:100550006FEFCE010E9425026FEFCE010E942502AF
:1005600080E02CC06FEF0E94250260E0CE010E9467
:1005700025026FEFCE010E94250280E01FC060E0DF
:100580000E94250260E0CE010E94250260E0CE01BB
:100590000E94250280E012C060E00E9425026FE701
:1005A000CE010E9425026FE7CE010E94250280E065
:1005B00005C082E003C083E001C080E0DF91CF91FD
:1005C00008951F93CF93DF930097F9F0FC012685E0
:1005D0002130E9F4EC0170E06087718710E005C01C
:1005E00068E0CE010E944E021F5F812F90E02885B7
:1005F000398582179307A0F3EC81FD8161E070E0FB
:1006000080E090E0099580E003C082E001C083E0D3
:10061000DF91CF911F910895CF93DF931F92CDB7B4
:10062000DEB7682F8EE098E20E94E102898389811B
:1006300080E00F90DF91CF9108951F93CF93DF93C8
:100640001F92CDB7DEB7182FEEE0F8E28FE0DF01A2
:100650001D928A95E9F789E893E08483958381EA7E
:1006600093E08683978380E793E08083918389E595
:1006700093E082839383CF010E94E701898389817C
:1006800081110EC0812F0E940C03898319811111E1
:1006900009C06AE070E080E090E00E94890303C036
:1006A00011E001C011E0812F0F90DF91CF911F91D8
:1006B00008958DB180688DB9000000000000000031
:1006C00000008DB18F778DB90000000000000000A0
:1006D000000000000000000000000000000008957D
:1006E0008DB180688DB9000000000000000000009E
:1006F00000000000000000000000000000000000FA
:100700008DB18F778DB9000000000000000000005F
:1007100008950F931F9308C089EF90E00197F1F7B8
:1007200000C00000C901B8018B019C0101501109F2
:1007300021093109672B682B692B71F71F910F91E4
:1007400008950F931F93CF93DF93CDB7DEB7C150BA
:10075000D140CDBFDEBF9E01285F3E4FF9014191E0
:1007600051919F018E010F5F1F4F80E091E0F801D2
:10077000BC01119261507040E1F760E071E0C80186
:100780000E94C908F80101900020E9F73197E01BA9
:10079000F10BCF5FDE4FE883C150D140CF5FDE4F1A
:1007A0006881C150D14070E0C8010E94D401892BFA
:1007B00039F4CF5FDE4F8881C150D14090E002C054
:1007C00080E090E0CF5FDE4FCDBFDEBFDF91CF9105
:1007D0001F910F910895A0E1B0E0E1EFF3E00C94D8
:1007E0006E077C011B016A01FC011682178283815E
:1007F00081FF44C39E012F5F3F4F3901F701938171
:10080000F10193FD859193FF81911F01882309F4E4
:1008100031C3853239F493FD859193FF81911F0196
:10082000853239F4B70190E00E948D0856016501C8
:10083000E5CF10E0512C912CFFE1F915D8F08B3267
:1008400079F038F4803279F08332A1F4F92DF06137
:100850002EC08D3261F0803369F4292D21602DC0C6
:10086000392D3260932E892D8460982E2AC0E92D6F
:10087000E86015C097FC2DC020ED280F2A3088F4C1
:1008800096FE06C03AE0139F200D1124122F19C0C6
:100890008AE0589E200D1124522EE92DE0629E2EF2
:1008A00010C08E3231F496FCE5C2F92DF0649F2E13
:1008B00008C08C3621F4292D2068922E02C088367B
:1008C00041F4F10193FD859193FF81911F01811105
:1008D000B3CF9BEB980F933020F4992D9061805EFD
:1008E00007C09BE9980F933008F066C1992D9F7E51
:1008F00096FF16E09F73992E853619F49064992E11
:1009000008C0863621F4392F3068932E02C01111A9
:10091000115097FE07C01C3350F444244394410EF9
:1009200027E00BC0183038F027E017E005C027E0BB
:100930009CE3492E02C0212F412C560184E0A80ED1
:10094000B11CF6016081718182819381042DA30124
:100950000E949F076C01F981FC87F0FF02C0F3FF42
:1009600006C091FC06C092FE06C000E205C00DE282
:1009700003C00BE201C000E08C858C7019F00111FE
:100980005AC29BC297FE10C04C0CFC85F4FF04C0F9
:100990008A81813309F44A94141474F528E02415EB
:1009A00078F588E0482E2CC096FC2AC0812F90E074
:1009B0008C159D059CF03CEFC3163FEFD30674F0F9
:1009C000892D8068982E0AC0E2E0F0E0EC0FFD1F50
:1009D000E10FF11D8081803319F411501111F4CF12
:1009E00097FE0EC044244394410E812F90E0C81618
:1009F000D9062CF41C1904C04424439401C010E00F
:100A000097FE06C01C141D0434F4C601019605C0EF
:100A100085E090E002C081E090E001110196112391
:100A200031F0212F30E02F5F3F4F820F931F252D94
:100A300030E08217930714F4581A01C0512C892D05
:100A4000897049F4552039F0B70180E290E00E94A6
:100A50008D085A94F7CF002329F0B701802F90E03A
:100A60000E948D0893FC09C0552039F0B70180E33E
:100A700090E00E948D085A94F7CF97FE4CC0460133
:100A8000D7FE02C0812C912CC60188199909F30167
:100A9000E80FF91FED87FE879601241931092F878A
:100AA000388B012F10E01195019511093FEF831646
:100AB000930629F4B7018EE290E00E948D08C814D5
:100AC000D9044CF08F8598898815990524F4ED8513
:100AD000FE85818101C080E3F1E08F1A91082D85A8
:100AE0003E852F5F3F4F2D873E87801691062CF065
:100AF000B70190E00E948D08D9CFC814D90441F401
:100B00009A81963320F4953319F43C8534FF81E3C0
:100B1000B70190E04EC08A81813319F09C859F7E99
:100B20009C87B70190E00E948D08111105C094FCCC
:100B300018C085E690E017C0B7018EE290E00E94F1
:100B40008D081E5F82E001E0080FF301E80FF11D40
:100B50008081B70190E00E948D08802F0113F3CFB0
:100B6000E6CF85E490E0B7010E948D08D7FC06C06F
:100B7000C114D10441F4EC85E4FF05C0D194C194C3
:100B8000D1088DE201C08BE2B70190E00E948D0890
:100B900080E32AE0C216D1042CF08F5FFAE0CF1A6E
:100BA000D108F7CFB70190E00E948D08B701C601C8
:100BB000C0960E948D0854C1833631F0833779F096
:100BC000833509F056C020C0560132E0A30EB11C97
:100BD000F6018081898301E010E0630112C05601B3
:100BE000F2E0AF0EB11CF601C080D18096FE03C0CA
:100BF000612F70E002C06FEF7FEFC6010E94820894
:100C00008C01F92DFF7714C0560122E0A20EB11C11
:100C1000F601C080D18096FE03C0612F70E002C053
:100C20006FEF7FEFC6010E9477088C01F92DF06805
:100C30009F2EF3FD1AC0852D90E008171907A8F420
:100C4000B70180E290E00E948D085A94F4CFF6013B
:100C500097FC859197FE81916F01B70190E00E940A
:100C60008D0851105A94015011090115110579F799
:100C7000F7C0843611F0893661F5560197FE09C038
:100C800024E0A20EB11CF601608171818281938102
:100C90000AC0F2E0AF0EB11CF60160817181072E2F
:100CA000000C880B990BF92DFF769F2E97FF09C03A
:100CB00090958095709561957F4F8F4F9F4FF0680D
:100CC0009F2E2AE030E0A3010E94F508C82EC61826
:100CD0003FC0092D853721F40F7E2AE030E01DC08A
:100CE000097F8F3691F018F4883559F0C3C08037EA
:100CF00019F0883711F0BEC0006104FF09C004601C
:100D000007C094FE08C0066006C028E030E005C0B9
:100D100020E130E002C020E132E0560107FF09C0C7
:100D200084E0A80EB11CF6016081718182819381FB
:100D300008C0F2E0AF0EB11CF6016081718180E065
:100D400090E0A3010E94F508C82EC6180F77902ED8
:100D500096FE0BC0092D0E7FC11650F494FE0AC0FA
:100D600092FC08C0092D0E7E05C0DC2C092D03C0A5
:100D7000DC2C01C0D12E04FF0DC0FE01EC0DF11DD5
:100D80008081803311F4097E09C002FF06C0D3942C
:100D9000D39404C0802F867809F0D39403FD11C04A
:100DA00000FF06C01C2DD51480F4150D1D190DC0B3
:100DB000D51458F4B70180E290E00E948D08D394D6
:100DC000F7CFD51410F45D1801C0512C04FF10C0EA
:100DD000B70180E390E00E948D0802FF17C001FD7B
:100DE00003C088E790E002C088E590E0B7010CC03E
:100DF000802F867859F001FF02C08BE201C080E2AB
:100E000007FD8DE2B70190E00E948D08C11638F40D
:100E1000B70180E390E00E948D081150F7CFCA948B
:100E2000F301EC0DF11D8081B70190E00E948D0867
:100E3000C110F5CF15C0F4E0F51560F584E0581A3F
:100E400093FE1FC0011127C02C8523FF2AC002EB8F
:100E500010E0392D3071932EF8018491811124C056
:100E6000552009F4E4CCB70180E290E00E948D089F
:100E70005A94F6CFF7018681978126C08FEF9FEFB6
:100E800023C0B70180E290E00E948D085A9451106F
:100E9000F8CFD8CF512CB701802F90E00E948D0859
:100EA000D3CF06EB10E0D5CF91108052B70190E080
:100EB0000E948D080F5F1F4FCFCF23E0251510F440
:100EC00083E0BDCF512CC0CF6096E2E10C94870740
:100ED000EE0FFF1F0590F491E02D09942F923F92A1
:100EE0004F925F926F927F928F929F92AF92BF923A
:100EF000CF92DF92EF92FF920F931F93CF93DF93E6
:100F0000CDB7DEB7CA1BDB0BCDBFDEBF09942A8885
:100F1000398848885F846E847D848C849B84AA840D
:100F2000B984C884DF80EE80FD800C811B81AA819A
:100F3000B981CE0FD11DCDBFDEBFED0108952830A0
:100F400008F027E03327DA01990F311D87FD916002
:100F500000966105710539F432602E5F3D9330E3F0
:100F60002A95E1F708959F3F30F0803871056105BB
:100F700009F03C5F3C5F3D93913008F08068911D23
:100F8000DF93CF931F930F93FF92EF92192F987FC8
:100F90009695E92F96959695E90FFF27EC5EFE4F03
:100FA00099273327EE24FF24A701E7010590089431
:100FB000079428F4360FE71EF81E491F511D660FCF
:100FC000771F881F991F0694A1F70590079428F4AE
:100FD000E70EF81E491F561FC11D770F881F991F66
:100FE000661F0694A1F70590079428F4F80E491F90
:100FF000561FC71FD11D880F991F661F771F0694A4
:10100000A1F70590079420F4490F561FC71FD81F5A
:10101000990F661F771F881F0694A9F78491109572
:10102000177041F0D695C79557954795F794E79473
:101030001A95C1F7EAEBF0E0689415901591359197
:101040006591959105907FE27395E118F10A430B44
:10105000560BC90BD009C0F7E10CF11E431F561FF8
:10106000C91FD01D7EF4703311F48A95E6CFE89441
:10107000015030F0080F0AF40027021708F4202F5F
:101080002395022F7A3328F079E37D932A95E9F7A7
:1010900010C07D932A9589F60694979567953795A4
:1010A00017951794E118F10A430B560BC90BD00999
:1010B00098F023957E9173957A3308F070E37C93D2
:1010C0002013B8F77E9170617D9330F0839571E3C2
:1010D0007D9370E32A95E1F71124EF90FF900F9133
:1010E0001F91CF91DF91992787FD90950895FC017D
:1010F0000590615070400110D8F7809590958E0F43
:101100009F1F0895FC016150704001900110D8F7B5
:10111000809590958E0F9F1F08950F931F93CF93E7
:10112000DF93FB01238121FD03C08FEF9FEF2CC0D4
:1011300022FF16C04681578124813581421753070B
:1011400044F4A081B1819D012F5F3F4F2083318303
:101150008C93268137812F5F3F4F2683378314C0BE
:101160008B01EC01FB010084F185E02D0995892BB1
:10117000E1F6D80116968D919C91179701961696D7
:101180008D939C931797CE01DF91CF911F910F9173
:101190000895AEE0B0E0EFECF8E00C947C078C0131
:1011A000FA0186E08C8309831A8377FF02C060E02E
:1011B00070E8CB0101978D839E83A901BF01CE0109
:1011C00001960E94EB034D815E8157FD0AC02F817D
:1011D0003885421753070CF49A01F801E20FF31F08
:1011E00010822E96E4E00C949507FA01AA27283085
:1011F00051F1203181F1E8946F936E7F6E5F7F4FE4
:101200008F4F9F4FAF4FB1E03ED0B4E03CD0670F5F
:10121000781F891F9A1FA11D680F791F8A1F911DB2
:10122000A11D6A0F711D811D911DA11D20D009F402
:1012300068943F912AE0269F11243019305D319344
:10124000DEF6CF010895462F4770405D4193B3E02D
:101250000FD0C9F7F6CF462F4F70405D4A3318F0D4
:10126000495D31FD4052419302D0A9F7EACFB4E085
:10127000A6959795879577956795BA95C9F700973D
:101280006105710508959B01AC010A2E06945795DE
:10129000479537952795BA95C9F7620F731F841F35
:0A12A000951FA01D0895F894FFCFDC
:1012AA00777332383132623A2064656C61795F6DE6
:1012BA0073206973206E756C6C2E0A00777332384E
:1012CA003132623A206770696F20646967697461B4
:1012DA006C20777269746520686967682069732071
:1012EA006E756C6C2C200A00777332383132623A90
:1012FA00206770696F206469676974616C2077720E
:10130A00697465206C6F77206973206E756C6C2C1C
:10131A00200A005753323831324200576F726C64D8
:0E132A0073656D69004F6E652057697265002E
:0E1338000000000200000000CF0100000000D5
:00000001FF
