:020000040800F2
:1000000000500020050F0008150E00081B0E000808
:10001000210E0008270E00082D0E00080000000029
:10002000000000000000000000000000330E000887
:100030003F0E0008000000004B0E0008570E00089D
:100040004D0F00084D0F00084D0F00084D0F000820
:100050004D0F00084D0F00084D0F00084D0F000810
:100060004D0F00084D0F00084D0F00084D0F000800
:100070004D0F00084D0F00084D0F00084D0F0008F0
:100080004D0F00084D0F00084D0F00084D0F0008E0
:10009000650E00084D0F00084D0F00084D0F0008B9
:1000A0004D0F00084D0F00084D0F00084D0F0008C0
:1000B000790E00084D0F00084D0F00084D0F000885
:1000C0004D0F00084D0F00084D0F00084D0F0008A0
:1000D0004D0F00084D0F00084D0F00084D0F000890
:1000E0004D0F00084D0F00084D0F000800000000E4
:1000F0000000000000000000000000000000000000
:0C01000000000000000000005FF808F1A3
:10010C0010B5054C237833B9044B13B10448AFF345
:10011C0000800123237010BDE801002000000000C6
:10012C00309A000808B5034B1BB103490348AFF3E1
:10013C00008008BD00000000EC010020309A00088F
:10014C00034613F8012B002AFBD1181A013870470B
:10015C0081F0004102E000BF83F0004330B54FEA6C
:10016C0041044FEA430594EA050F08BF90EA020FD9
:10017C001FBF54EA000C55EA020C7FEA645C7FEA6C
:10018C00655C00F0E2804FEA5454D4EB5555B8BF8F
:10019C006D420CDD2C4480EA020281EA030382EA00
:1001AC00000083EA010180EA020281EA0303362D92
:1001BC0088BF30BD11F0004F4FEA01314FF4801C65
:1001CC004CEA113102D0404261EB410113F0004F77
:1001DC004FEA03334CEA133302D0524263EB43032E
:1001EC0094EA050F00F0A780A4F10104D5F1200ECC
:1001FC000DDB02FA0EFC22FA05F2801841F1000127
:10020C0003FA0EF2801843FA05F359410EE0A5F1FA
:10021C0020050EF1200E012A03FA0EFC28BF4CF02B
:10022C00020C43FA05F3C01851EBE37101F00045E1
:10023C0007D54FF0000EDCF1000C7EEB00006EEBEE
:10024C000101B1F5801F1BD3B1F5001F0CD3490878
:10025C005FEA30004FEA3C0C04F101044FEA4452CF
:10026C0012F5800F80F09A80BCF1004F08BF5FEA56
:10027C00500C50F1000041EB045141EA050130BD36
:10028C005FEA4C0C404141EB0101013C28BFB1F548
:10029C00801FE9D291F0000F04BF01460020B1FA93
:1002AC0081F308BF2033A3F10B03B3F120020CDA66
:1002BC000C3208DD02F1140CC2F10C0201FA0CF044
:1002CC0021FA02F10CE002F11402D8BFC2F1200CA9
:1002DC0001FA02F120FA0CFCDCBF41EA0C0190405F
:1002EC00E41AA2BF01EB0451294330BD6FEA0404A8
:1002FC001F3C1CDA0C340EDC04F11404C4F1200293
:10030C0020FA04F001FA02F340EA030021FA04F3A4
:10031C0045EA030130BDC4F10C04C4F1200220FAFB
:10032C0002F001FA04F340EA0300294630BD21FA39
:10033C0004F0294630BD94F0000F83F4801306BFFF
:10034C0081F480110134013D4EE77FEA645C18BFF3
:10035C007FEA655C29D094EA050F08BF90EA020F8A
:10036C0005D054EA000C04BF1946104630BD91EA82
:10037C00030F1EBF0021002030BD5FEA545C05D185
:10038C004000494128BF41F0004130BD14F58004C4
:10039C003CBF01F5801130BD01F0004545F0FE4138
:1003AC0041F470014FF0000030BD7FEA645C1ABF6D
:1003BC00194610467FEA655C1CBF0B46024650EAA4
:1003CC00013406BF52EA033591EA030F41F40021D0
:1003DC0030BD00BF90F0000F04BF0021704730B556
:1003EC004FF4806404F132044FF000054FF000012B
:1003FC0050E700BF90F0000F04BF0021704730B5EC
:10040C004FF4806404F1320410F0004548BF4042C0
:10041C004FF000013EE700BF42004FEAE2014FEA15
:10042C0031014FEA02701FBF12F07F4393F07F4FF0
:10043C0081F06051704732F07F4208BF704793F0F3
:10044C007F4F04BF41F40021704730B54FF4607406
:10045C0001F0004521F000411CE700BF50EA010209
:10046C0008BF704730B54FF000050AE050EA0102B2
:10047C0008BF704730B511F0004502D5404261EB22
:10048C0041014FF4806404F132045FEA915C3FF463
:10049C00D8AE4FF003025FEADC0C18BF03325FEA00
:1004AC00DC0C18BF033202EBDC02C2F1200300FAB1
:1004BC0003FC20FA02F001FA03FE40EA0E0021FAD6
:1004CC0002F11444BDE600BF80F0004002E000BF22
:1004DC0081F0004142001FBF5FEA410392EA030F23
:1004EC007FEA226C7FEA236C6AD04FEA1262D2EB6D
:1004FC001363C1BFD218414048404140B8BF5B4272
:10050C00192B88BF704710F0004F40F4000020F00A
:10051C007F4018BF404211F0004F41F4000121F020
:10052C007F4118BF494292EA030F3FD0A2F101026A
:10053C0041FA03FC10EB0C00C3F1200301FA03F1A8
:10054C0000F0004302D5494260EB4000B0F5000FCB
:10055C0013D3B0F1807F06D340084FEA310102F18A
:10056C000102FE2A51D2B1F1004F40EBC25008BF3C
:10057C0020F0010040EA03007047490040EB000006
:10058C00013A28BFB0F5000FEDD2B0FA80FCACF107
:10059C00080CB2EB0C0200FA0CF0AABF00EBC25034
:1005AC0052421843BCBFD0401843704792F0000F22
:1005BC0081F4000106BF80F400000132013BB5E775
:1005CC004FEA41037FEA226C18BF7FEA236C21D0EB
:1005DC0092EA030F04D092F0000F08BF0846704750
:1005EC0090EA010F1CBF0020704712F07F4F04D11E
:1005FC00400028BF40F00040704712F100723CBF31
:10060C0000F50000704700F0004343F0FE4040F45A
:10061C00000070477FEA226216BF08467FEA236318
:10062C000146420206BF5FEA412390EA010F40F403
:10063C00800070474FF0000304E000BF10F000434F
:10064C0048BF40425FEA000C08BF704743F0964336
:10065C0001464FF000001CE050EA010208BF704751
:10066C004FF000030AE000BF50EA010208BF7047D8
:10067C0011F0004302D5404261EB41015FEA010CED
:10068C0002BF84460146002043F0B64308BFA3F1E5
:10069C008053A3F50003BCFA8CF2083AA3EBC253C7
:1006AC0010DB01FA02FC634400FA02FCC2F12002E6
:1006BC00BCF1004F20FA02F243EB020008BF20F01D
:1006CC000100704702F1200201FA02FCC2F1200283
:1006DC0050EA4C0021FA02F243EB020008BF20EA78
:1006EC00DC7070474FF0FF0C1CEAD0521EBF1CEAA6
:1006FC00D15392EA0C0F93EA0C0F6FD01A4480EA94
:10070C00010C400218BF5FEA41211ED04FF000637C
:10071C0043EA501043EA5111A0FB01310CF00040A8
:10072C00B1F5000F3EBF490041EAD3715B0040EACE
:10073C00010062F17F02FD2A1DD8B3F1004F40EB9E
:10074C00C25008BF20F00100704790F0000F0CF071
:10075C00004C08BF49024CEA502040EA51207F3A35
:10076C00C2BFD2F1FF0340EAC250704740F4000010
:10077C004FF00003013A5DDC12F1190FDCBF00F001
:10078C0000407047C2F10002410021FA02F1C2F1AF
:10079C00200200FA02FC5FEA310040F1000053EA4B
:1007AC004C0308BF20EADC70704792F0000F00F099
:1007BC00004C02BF400010F4000F013AF9D040EA9F
:1007CC000C0093F0000F01F0004C02BF490011F433
:1007DC00000F013BF9D041EA0C018FE70CEAD15331
:1007EC0092EA0C0F18BF93EA0C0F0AD030F0004CB1
:1007FC0018BF31F0004CD8D180EA010000F0004065
:10080C00704790F0000F17BF90F0004F084691F022
:10081C00000F91F0004F14D092EA0C0F01D142025C
:10082C000FD193EA0C0F03D14B0218BF084608D125
:10083C0080EA010000F0004040F0FE4040F400006F
:10084C00704740F0FE4040F4400070474FF0FF0C02
:10085C001CEAD0521EBF1CEAD15392EA0C0F93EA49
:10086C000C0F69D0A2EB030280EA010C49024FEA9B
:10087C00402037D04FF0805343EA111143EA101354
:10088C000CF000408B4238BF5B0042F17D024FF40C
:10089C00000C8B4224BF5B1A40EA0C00B3EB510FE7
:1008AC0024BFA3EB510340EA5C00B3EB910F24BFD0
:1008BC00A3EB910340EA9C00B3EBD10F24BFA3EB55
:1008CC00D10340EADC001B0118BF5FEA1C1CE0D11D
:1008DC00FD2A3FF650AF8B4240EBC25008BF20F0D0
:1008EC00010070470CF0004C4CEA50207F32C2BF24
:1008FC00D2F1FF0340EAC250704740F400004FF0C1
:10090C000003013A37E792F0000F00F0004C02BFF1
:10091C00400010F4000F013AF9D040EA0C0093F0BB
:10092C00000F01F0004C02BF490011F4000F013B15
:10093C00F9D041EA0C0195E70CEAD15392EA0C0F7D
:10094C0008D142027FF47DAF93EA0C0F7FF470AFB5
:10095C00084676E793EA0C0F04D14B023FF44CAFF8
:10096C0008466EE730F0004C18BF31F0004CCAD18D
:10097C0030F000427FF45CAF31F000437FF43CAFC9
:10098C005FE700BF42000ED2B2F1FE4F0BD34FF027
:10099C009E03B3EB126209D44FEA002343F00043E9
:1009AC0023FA02F070474FF00000704712F1610F0C
:1009BC0001D1420202D14FF0FF3070474FF00000DE
:1009CC00704700BFF0B597B002AF00F0BBFA00F073
:1009DC00B5F800F05BF900F00BF907F04BFC4A4856
:1009EC0002F092FF4FF4FA6000F00EFB182008F0B2
:1009FC0059FA3B46184608F00BFA3B461946434851
:100A0C0008F003FB3B4619331946414808F0FDFA40
:100A1C003B46323319463F4808F0F7FA3B6C184610
:100A2C00FFF7FAFC02460B463B4808F0EEFAFB6B6C
:100A3C001846FFF7F1FC02460B46384808F0E5FA79
:100A4C00BB6C1846FFF7E8FC02460B46344808F02E
:100A5C00DCFAFB6C33491846FFF7F8FE03461846E0
:100A6C00FFF7DAFC04460D46FE6CFB6C2E4918466B
:100A7C00FFF7ECFE03461846FFF784FF0346DBB294
:100A8C001A46642302FB03F31846FFF7D7FD03460F
:100A9C0019463046FFF71CFD03461846FFF772FF58
:100AAC000346DBB2009322462B46204808F0ADFAF1
:100ABC001F4B00221A6022E01E4B01221A6012E02A
:100ACC00322008F099FA1B4B1B68DAB2184B1B68E2
:100ADC001949CB5C1946104608F02EFA154B1B68C9
:100AEC000133144A1360134B1B68182BE8DD3220BA
:100AFC0008F082FA0E4B1B6801330D4A13600C4B45
:100B0C001B68062BD8D9D3E704020020489A0008AA
:100B1C005C9A0008709A0008849A0008A49A00084D
:100B2C00C49A000800007A440000C842E09A000809
:100B3C004C020020500200200000002080B594B030
:100B4C0000AF07F1280328220021184608F0BCFA50
:100B5C0007F1140300221A605A609A60DA601A6175
:100B6C003B1D00221A605A609A60DA600123BB6256
:100B7C004FF48033FB6200233B630123BB630223EE
:100B8C007B644FF48033BB644FF4E013FB6407F1D8
:100B9C002803184602F0CAF90346002B01D000F0D6
:100BAC00D7F80F237B610223BB610023FB614FF459
:100BBC0080633B6200237B6207F114030221184619
:100BCC0002F036FC0346002B01D000F0C1F81023D4
:100BDC007B6000233B613B1D184602F08FFD0346F2
:100BEC00002B01D000F0B4F800BF5037BD4680BDDB
:100BFC0080B586B000AF07F1080300221A605A6076
:100C0C009A60DA603B4600221A605A601E4B4FF025
:100C1C0080421A601C4B41F61F425A601A4B00224C
:100C2C009A60194B42F21072DA60174B00221A616B
:100C3C00154B00229A61144802F016FE0346002B55
:100C4C0001D000F085F84FF48053BB6007F1080326
:100C5C0019460D4802F0B2FF0346002B01D000F0FC
:100C6C0077F800233B6000237B603B46194606481F
:100C7C0003F084F90346002B01D000F069F800BFA3
:100C8C001837BD4680BD00BF0402002080B588B077
:100C9C0000AF07F1100300221A605A609A60DA6004
:100CAC001E4B9B691D4A43F0200393611B4B9B69B0
:100CBC0003F02003FB60FB68184B9B69174A43F059
:100CCC0008039361154B9B6903F00803BB60BB6879
:100CDC00124B9B69114A43F0040393610F4B9B69C0
:100CEC0003F004037B607B68002240F602010C4891
:100CFC0000F040FC40F602033B6101237B610023C2
:100D0C00BB610223FB6107F110031946044800F094
:100D1C00ADFA00BF2037BD4680BD00BF00100240B9
:100D2C00000C014080B483B000AF78607B681B6816
:100D3C00B3F1804F04D1054B1B680133034A136098
:100D4C0000BF0C37BD4680BC704700BF540200206A
:100D5C0080B400AF72B600BFFEE7000080B485B06F
:100D6C0000AF154B9B69144A43F001039361124B7E
:100D7C009B6903F00103BB60BB680F4BDB690E4A38
:100D8C0043F08053D3610C4BDB6903F080537B60E1
:100D9C007B680A4B5B68FB60FB6823F0E063FB60DD
:100DAC00FB6843F08063FB60044AFB68536000BF40
:100DBC001437BD4680BC7047001002400000014053
:100DCC0080B584B000AF78607B681B68B3F1804F4E
:100DDC0013D10C4BDB690B4A43F00103D361094B74
:100DEC00DB6903F00103FB60FB68002200211C207F
:100DFC0000F005FA1C2000F01EFA00BF1037BD46AB
:100E0C0080BD00BF0010024080B400AFFEE780B48C
:100E1C0000AFFEE780B400AFFEE780B400AFFEE7A2
:100E2C0080B400AFFEE780B400AF00BFBD4680BC0D
:100E3C00704780B400AF00BFBD4680BC704780B423
:100E4C0000AF00BFBD4680BC704780B500AF00F05E
:100E5C00BFF800BF80BD000080B500AF024800F0B5
:100E6C00D2FC00BF80BD00BFF80E002080B500AFE3
:100E7C00024802F09BFD00BF80BD00BF04020020B1
:100E8C0080B586B000AF7860144A154BD31A7B61DD
:100E9C007B693B61134B1B68002B02D1114B124A2F
:100EAC001A60104B1A687B6813443A699A4207D24D
:100EBC0008F0E0F803460C221A604FF0FF3309E00B
:100ECC00084B1B68FB60074B1A687B681344054A88
:100EDC001360FB6818461837BD4680BD00500020D3
:100EEC0000040000580200203014002080B400AF31
:100EFC0000BFBD4680BC70470C480D490D4A00230D
:100F0C0002E0D458C4500433C4188C42F9D30A4AB2
:100F1C000A4C002301E013600432A242FBD3FFF71A
:100F2C00E5FF08F0ADF8FFF74DFD7047000000201D
:100F3C00E8010020D49C0008E801002030140020B7
:100F4C00FEE7000080B500AF084B1B68074A43F072
:100F5C0010031360032000F047F90F2000F008F88D
:100F6C00FFF7FCFE0023184680BD00BF00200240A6
:100F7C0080B582B000AF7860124B1A68124B1B78A8
:100F8C0019464FF47A73B3FBF1F3B2FBF3F3184643
:100F9C0000F05FF90346002B01D001230EE07B68C3
:100FAC000F2B0AD8002279684FF0FF3000F027F998
:100FBC00064A7B681360002300E0012318460837BB
:100FCC00BD4680BD08000020100000200C00002051
:100FDC0080B400AF054B1B781A46054B1B681344B5
:100FEC00034A136000BFBD4680BC70471000002050
:100FFC005C02002080B400AF024B1B681846BD4653
:10100C0080BC70475C02002080B584B000AF786073
:10101C00FFF7F0FFB8607B68FB60FB68B3F1FF3F44
:10102C0005D00A4B1B781A46FB681344FB6000BFC3
:10103C00FFF7E0FF0246BB68D31AFA689A42F7D86A
:10104C0000BF00BF1037BD4680BD00BF10000020A0
:10105C0080B485B000AF78607B6803F00703FB6059
:10106C000C4BDB68BB60BA684FF6FF031340BB60E8
:10107C00FB681A02BB68134343F0BF6343F40033AD
:10108C00BB60044ABB68D36000BF1437BD4680BC4C
:10109C00704700BF00ED00E080B400AF044BDB688C
:1010AC001B0A03F007031846BD4680BC704700BFFF
:1010BC0000ED00E080B483B000AF0346FB7197F9FC
:1010CC000730002B0BDBFB7903F01F02064997F965
:1010DC0007305B09012000FA02F241F8232000BF1F
:1010EC000C37BD4680BC704700E100E080B483B093
:1010FC0000AF03463960FB7197F90730002B0ADB10
:10110C003B68DAB20C4997F907301201D2B20B44A2
:10111C0083F800230AE03B68DAB20849FB7903F054
:10112C000F03043B1201D2B20B441A7600BF0C37EA
:10113C00BD4680BC704700BF00E100E000ED00E060
:10114C0080B489B000AFF860B9607A60FB6803F0D6
:10115C000703FB61FB69C3F10703042B28BF0423BE
:10116C00BB61FB690433062B02D9FB69033B00E02E
:10117C0000237B614FF0FF32BB6902FA03F3DA43C1
:10118C00BB681A407B699A404FF0FF317B6901FACA
:10119C0003F3D9437B680B40134318462437BD46F1
:1011AC0080BC704780B582B000AF78607B68013B33
:1011BC00B3F1807F01D301230FE00A4A7B68013B26
:1011CC0053600F214FF0FF30FFF790FF054B0022CB
:1011DC009A60044B07221A60002318460837BD4654
:1011EC0080BD00BF10E000E080B582B000AF786039
:1011FC007868FFF72DFF00BF0837BD4680BD80B56E
:10120C0086B000AF0346B9607A60FB7300237B6144
:10121C00FFF742FF78617A68B9687869FFF790FF49
:10122C00024697F90F3011461846FFF75FFF00BFD3
:10123C001837BD4680BD80B582B000AF0346FB7148
:10124C0097F907301846FFF735FF00BF0837BD4642
:10125C0080BD80B582B000AF78607868FFF7A2FFE0
:10126C00034618460837BD4680BD000080B48BB0DD
:10127C0000AF7860396000237B6200233B6269E138
:10128C0001227B6A02FA03F3FB613B681B68FA6973
:10129C001340BB61BA69FB699A4240F058813B68C4
:1012AC005B689A4A93425ED0984A934275D8984AA2
:1012BC00934258D0964A93426FD8964A934252D052
:1012CC00944A934269D8944A93424CD0924A93429E
:1012DC0063D8924A934246D0904A93425DD8122BDF
:1012EC002AD8122B59D801A252F823F073130008F4
:1012FC004D1300085F130008A1130008A713000882
:10130C00A7130008A7130008A7130008A7130008C9
:10131C00A7130008A7130008A7130008A7130008B9
:10132C00A7130008A7130008A7130008A7130008A9
:10133C005513000869130008794A934213D02CE026
:10134C003B68DB683B6229E03B68DB6804333B624B
:10135C0024E03B68DB6808333B621FE03B68DB68DA
:10136C000C333B621AE03B689B68002B02D10423D0
:10137C003B6213E03B689B68012B05D108233B6261
:10138C007B68FA691A6109E008233B627B68FA6999
:10139C005A6103E000233B6200E000BFBB69FF2BF6
:1013AC0001D87B6801E07B6804337B61BB69FF2B50
:1013BC0002D87B6A9B0002E07B6A083B9B003B6186
:1013CC007B691A680F213B6901FA03F3DB431A406E
:1013DC00396A3B6901FA03F31A437B691A603B686B
:1013EC005B6803F08053002B00F0B1804D4B9B6980
:1013FC004C4A43F0010393614A4B9B6903F0010390
:10140C00BB60BB68484A7B6A9B08023352F82330A6
:10141C00FB607B6A03F003039B000F2202FA03F3C9
:10142C00DB43FA681340FB607B68404A934213D05D
:10143C007B683F4A93420DD07B683E4A934207D06B
:10144C007B683D4A934201D1032306E0042304E068
:10145C00022302E0012300E000237A6A02F0030277
:10146C0092009340FA681343FB602F497B6A9B08F8
:10147C000233FA6841F823203B685B6803F480333D
:10148C00002B06D02D4B1A682C49BB6913430B60FB
:10149C0006E02A4B1A68BB69DB43284913400B60F2
:1014AC003B685B6803F40033002B06D0234B5A686F
:1014BC002249BB6913434B6006E0204B5A68BB6959
:1014CC00DB431E4913404B603B685B6803F480139D
:1014DC00002B06D0194B9A681849BB6913438B60D3
:1014EC0006E0164B9A68BB69DB43144913408B60CA
:1014FC003B685B6803F40013002B21D00F4BDA68B8
:10150C000E49BB691343CB6021E000BF00003210D1
:10151C0000003110000022100000211000001210F9
:10152C0000001110001002400000014000080140B2
:10153C00000C014000100140001401400004014067
:10154C000B4BDA68BB69DB4309491340CB607B6A00
:10155C0001337B623B681A687B6A22FA03F3002B27
:10156C007FF48EAE00BF00BF2C37BD4680BC7047E9
:10157C000004014080B483B000AF78600B467B80E0
:10158C0013467B707B78002B03D07A887B681A61BA
:10159C0003E07B881A047B681A6100BF0C37BD46D8
:1015AC0080BC7047F0B58BB006AF78607B68002BC1
:1015BC0001D10123FDE07B6893F8A932DBB2002B4B
:1015CC0006D17B68002283F8A822786807F01EF801
:1015DC007B68032283F8A9227B681B68184602F0FB
:1015EC0063FD7B681B683B607E686D4606F11004EA
:1015FC000FCC0FC523682B60331D0ECB386802F05F
:10160C002DFD0346002B05D07B68022283F8A9220E
:10161C000123CEE07B681B680021184602F05EFDBA
:10162C000023FB734CE0FB7B79685A1C13469B0030
:10163C001344DB000B44013301221A70FB7B7968E5
:10164C005A1C13469B001344DB000B44FA7B1A70A4
:10165C00FA7BFB7B98B2796813469B001344DB0042
:10166C000B44363302461A80FB7B79685A1C1346AE
:10167C009B001344DB000B44033300221A70FA7BEB
:10168C00796813469B001344DB000B44383300226B
:10169C001A60FA7B796813469B001344DB000B44F9
:1016AC003C3300221A60FA7B796813469B00134482
:1016BC00DB000B44403300221A60FB7B0133FB73CD
:1016CC00FA7B7B685B689A42ADD30023FB7344E0E2
:1016DC00FA7B796813469B001344DB000B4403F23E
:1016EC00691300221A70FA7B796813469B00134425
:1016FC00DB000B4403F5B473FA7B1A70FA7B796840
:10170C0013469B001344DB000B4403F26B130022C3
:10171C001A70FA7B796813469B001344DB000B4468
:10172C0003F5BC7300221A60FA7B796813469B00A0
:10173C001344DB000B4403F5BE7300221A60FA7BE2
:10174C00796813469B001344DB000B4403F5C0730C
:10175C0000221A60FB7B0133FB73FA7B7B685B68AE
:10176C009A42B5D37B681B683B607E686D4606F178
:10177C0010040FCC0FC523682B60331D0ECB3868BB
:10178C0002F0B8FC0346002B05D07B68022283F8DC
:10179C00A92201230DE07B68002283F824207B68BA
:1017AC00012283F8A9227B681B68184605F06AF9A8
:1017BC00002318461437BD46F0BD80B582B000AF8B
:1017CC0078607B6893F8A832012B01D1022316E0D4
:1017DC007B68012283F8A8227B681B68184602F0FC
:1017EC004DFC0121786807F084F97B681B6818466A
:1017FC0005F03EF97B68002283F8A82200231846E6
:10180C000837BD4680BD80B588B000AF78607B6876
:10181C001B68184605F040F9034603F40043B3F582
:10182C00004F02D1786800F05FFB7B681B6818469C
:10183C0005F032F9034603F48063B3F5806F12D1DF
:10184C007B681B68B3F844309AB27B681B6822F43F
:10185C00806292B2A3F84420786806F052FF00210F
:10186C00786800F023F97B681B68184605F014F9BA
:10187C00034603F48043B3F5804F0BD17B681B68A0
:10188C00B3F844309AB27B681B6822F4804292B25F
:10189C00A3F844207B681B68184605F0FDF8034646
:1018AC0003F40053B3F5005F0BD17B681B68B3F8EE
:1018BC0044309AB27B681B6822F4005292B2A3F8AF
:1018CC0044207B681B68184605F0E6F8034603F4D1
:1018DC008053B3F5805F26D17B681B68B3F840302A
:1018EC009AB27B681B6822F0040292B2A3F84020E3
:1018FC007B681B68B3F840309AB27B681B6822F097
:10190C00080292B2A3F84020786806F033FF7B6897
:10191C001B68B3F844309AB27B681B6822F480527F
:10192C0092B2A3F844207B681B68184605F0B4F803
:10193C00034603F40063B3F5006F40F0828000238C
:10194C00FB7710E07B681B681A46FB7F9B001A44F0
:10195C00FB7F128892B25B0020333B4423F8142C9B
:10196C00FB7F0133FB77FB7F072BEBD97B681B6875
:10197C00B3F840309AB27B681B6842F0010292B215
:10198C00A3F840207B681B68B3F840309AB27B68A0
:10199C001B6822F0010292B2A3F8402000BF7B68C2
:1019AC001B68B3F844309BB203F48063002BF6D071
:1019BC007B681B68B3F844309AB27B681B6822F4CE
:1019CC00806292B2A3F844200023FB770FE0FB7FE8
:1019DC007A6812681146FA7F92000A445B00203341
:1019EC003B4433F8143C1380FB7F0133FB77FB7FC4
:1019FC00072BECD97B681B68B3F840309AB27B6834
:101A0C001B6842F0080292B2A3F840207B681B6866
:101A1C00B3F844309AB27B681B6822F4006292B22D
:101A2C00A3F844207B681B68B3F840309AB27B68FB
:101A3C001B6842F0040292B2A3F84020786806F0CA
:101A4C007FFE7B681B68184605F026F8034603F4F6
:101A5C000073B3F5007F0ED17B681B68B3F844307C
:101A6C009AB27B681B6822F4007292B2A3F84420ED
:101A7C00786806F038FE7B681B68184605F00CF891
:101A8C00034603F48073B3F5807F0BD17B681B682E
:101A9C00B3F844309AB27B681B6822F4807292B21D
:101AAC00A3F8442000BF2037BD4680BD80B582B06E
:101ABC0000AF78600B46FB707B6893F8A832012B63
:101ACC0001D1022313E07B68012283F8A8227B68F2
:101ADC00FA7883F824207B681B68FA78114618463C
:101AEC0004F0B3FF7B68002283F8A8220023184679
:101AFC000837BD4680BD80B584B000AF786008461D
:101B0C0011461A460346FB700B463B801346BB70CE
:101B1C000023FB7297F90330002B0EDAFB7803F0ED
:101B2C0007035A1C13469B001344DB007A681344CA
:101B3C00FB60FB6801225A700EE0FB7803F0070291
:101B4C0013469B001344DB0003F5B4737A6813440B
:101B5C00FB60FB6800225A70FB7803F00703DAB2D3
:101B6C00FB681A703A88FB681A61FB68BA78DA70FD
:101B7C00FB685B78002B04D0FB681B789AB2FB687F
:101B8C00DA81BB78022B02D1FB6800221A717B68C8
:101B9C0093F8A832012B01D102230EE07B680122BD
:101BAC0083F8A8227B681B68F968184602F0C2FA11
:101BBC007B68002283F8A822FB7A18461037BD46B2
:101BCC0080BD80B584B000AF78600B46FB7097F990
:101BDC000330002B0EDAFB7803F007035A1C134674
:101BEC009B001344DB007A681344FB60FB68012202
:101BFC005A700EE0FB7803F0070213469B00134467
:101C0C00DB0003F5B4737A681344FB60FB680022B5
:101C1C005A70FB7803F00703DAB2FB681A707B6822
:101C2C0093F8A832012B01D102230EE07B6801222C
:101C3C0083F8A8227B681B68F968184602F0E4FD5B
:101C4C007B68002283F8A822002318461037BD4673
:101C5C0080BD80B586B000AFF8607A603B600B4603
:101C6C00FB72FB7A03F0070213469B001344DB0064
:101C7C0003F5B473FA6813447B617B697A685A6123
:101C8C007B693A689A617B690022DA617B69002280
:101C9C005A70FB7A03F00703DAB27B691A70FB7A8D
:101CAC0003F00703002B06D1FB681B687969184603
:101CBC0002F096FF05E0FB681B687969184602F094
:101CCC008FFF002318461837BD4680BD80B483B003
:101CDC0000AF78600B46FB70FB7803F00702796865
:101CEC0013469B001344DB000B4403F5C2731B68C3
:101CFC0018460C37BD4680BC704780B586B000AF27
:101D0C00F8607A603B600B46FB72FB7A03F00703CA
:101D1C005A1C13469B001344DB00FA6813447B6186
:101D2C007B697A685A617B693A689A617B6901229E
:101D3C0083F824207B693A681A627B690022DA6195
:101D4C007B6901225A70FB7A03F00703DAB27B69D4
:101D5C001A70FB7A03F00703002B06D1FB681B6893
:101D6C007969184602F03CFF05E0FB681B6879694D
:101D7C00184602F035FF002318461837BD4680BDC3
:101D8C0080B584B000AF78600B46FB70FB7803F035
:101D9C0007027B685B689A4201D901234CE097F9F2
:101DAC000330002B0EDAFB7803F007035A1C1346A2
:101DBC009B001344DB007A681344FB60FB68012230
:101DCC005A700CE0FA7813469B001344DB0003F5C1
:101DDC00B4737A681344FB60FB6800225A70FB688A
:101DEC0001229A70FB7803F00703DAB2FB681A70D1
:101DFC007B6893F8A832012B01D102231CE07B688D
:101E0C00012283F8A8227B681B68F968184604F045
:101E1C001FFDFB7803F00703002B08D17B681A68C1
:101E2C007B6803F52C731946104604F044FE7B685E
:101E3C00002283F8A822002318461037BD4680BD27
:101E4C0080B584B000AF78600B46FB70FB7803F074
:101E5C000F027B685B689A4201D9012340E097F935
:101E6C000330002B0EDAFB7803F007035A1C1346E1
:101E7C009B001344DB007A681344FB60FB6801226F
:101E8C005A700EE0FB7803F0070213469B001344D4
:101E9C00DB0003F5B4737A681344FB60FB68002223
:101EAC005A70FB6800229A70FB7803F00703DAB2D1
:101EBC00FB681A707B6893F8A832012B01D10223BE
:101ECC000EE07B68012283F8A8227B681B68F96806
:101EDC00184604F00DFD7B68002283F8A82200232D
:101EEC0018461037BD4680BD80B58EB000AF786007
:101EFC00ECE27B681B68B3F84430FB85FB8DDBB2EE
:101F0C0003F00F0387F82D3097F82D30002B40F09D
:101F1C006181FB8D03F01003002B52D17B681B6891
:101F2C001B889BB223F4E14323F07003FB817B6895
:101F3C001A68FB896FEA43436FEA53439BB21380E1
:101F4C007B6828337B627B681B68B3F850309BB28C
:101F5C001A467B6A1B78DB00134402335B007A68F9
:101F6C001268134403F580631B88C3F309027B6A70
:101F7C00DA617B6A5A697B6ADB691A447B6A5A614B
:101F8C000021786806F095FB7B6893F82430DBB26F
:101F9C00002B00F09B827B6A9B69002B40F09682A1
:101FAC007B6893F82430DBB263F07F03DAB27B6892
:101FBC001B6892B2A3F84C207B68002283F8242083
:101FCC0084E27B6803F5B4737B627B681B681B88B7
:101FDC007B857B8D03F40063002B34D07B681B68FE
:101FEC00B3F850309BB21A467B6A1B78DB00134463
:101FFC0006335B007A681268134403F580631B8810
:10200C00C3F309027B6ADA617B6818687B6803F5A5
:10201C002C717B6ADA887B6ADB699BB204F09BFDCE
:10202C007B681B681B889AB240F68F7313403B8207
:10203C007B681B683A8A42F0800292B21A807868F8
:10204C0006F00AFB42E2B7F92A30002B80F23E82FE
:10205C007B681B681B889AB240F68F731340BB8356
:10206C007B681B68BA8B42F0800292B21A807B6844
:10207C001B68B3F850309BB21A467B6A1B78DB00A6
:10208C00134406335B007A681268134403F58063CB
:10209C001B88C3F309027B6ADA617B6ADB69002B5C
:1020AC0019D07B6A5B69002B15D07B6818687B6A3A
:1020BC0059697B6ADA887B6ADB699BB204F04BFD59
:1020CC007B6A5A697B6ADB691A447B6A5A61002114
:1020DC00786806F0D3FA7B681B681B889BB203F404
:1020EC000063002B40F0F2817B681B68BB617B684E
:1020FC001B68B3F850309BB21A46BB691344BB61E2
:10210C00BB6903F20C437B617B6A1B69002B12D108
:10211C007B691B889BB223F4F8439AB27B691A80C3
:10212C007B691B889BB26FEA43436FEA53439AB2B5
:10213C007B691A802FE07B6A1B693E2B13D87B6A64
:10214C001B695B083B637B6A1B6903F00103002B73
:10215C0002D03B6B01333B633B6B9BB29B029AB24D
:10216C007B691A8017E07B6A1B695B093B637B6A9E
:10217C001B6903F01F03002B02D13B6B013B3B633C
:10218C003B6B9BB29B029BB26FEA43436FEA534398
:10219C009AB27B691A807B681B681B889BB223F4FC
:1021AC00804323F070037B827B8A83F480537B8291
:1021BC007B8A83F400537B827B681A687B8A43F0AA
:1021CC007F4343F47F0343F4004343F080039BB20B
:1021DC0013807BE17B681B681A4697F82D309B00B7
:1021EC0013441B887B85B7F92A30002B80F2EA80D8
:1021FC007B681B681A4697F82D309B0013441B888C
:10220C009AB240F68F7313403B857B681B681A4665
:10221C0097F82D309B0013443A8D42F0800292B215
:10222C001A8097F82D2013469B001344DB0003F50E
:10223C00B4737A6813447B627B6A1B7B002B22D1BC
:10224C007B681B68B3F850309BB21A467B6A1B78CC
:10225C00DB00134406335B007A681268134403F501
:10226C0080631B88C3F30903FB86FB8E002B00F0F5
:10227C0087807B6818687B6A59697B6ADA88FB8E71
:10228C0004F069FC7CE07B6ADB78022B08D17B8D47
:10229C001A46796A786800F027F90346FB866FE0E6
:1022AC007B681B681A467B6A1B789B0013441B884F
:1022BC009BB223F4E04323F070037B847B681B68A0
:1022CC001A467B6A1B789B001A447B8C43F07F4335
:1022DC0043F47F0343F4004343F0C0039BB21380E9
:1022EC007B681B681A467B6A1B789B0013441B880F
:1022FC009BB203F48043002B21D07B681B68B3F89E
:10230C0050309BB21A467B6A1B78DB0013440233B5
:10231C005B007A681268134403F580631B88C3F36F
:10232C000903FB86FB8E002B2AD07B6818687B6A1E
:10233C0059697B6A1A89FB8E04F00DFC20E07B68DE
:10234C001B68B3F850309BB21A467B6A1B78DB00D3
:10235C00134406335B007A681268134403F58063F8
:10236C001B88C3F30903FB86FB8E002B08D07B680C
:10237C0018687B6A59697B6A5A89FB8E04F0EBFBFF
:10238C007B6ADA69FB8E1A447B6ADA617B6A5A696A
:10239C00FB8E1A447B6A5A617B6A9B69002B04D0C2
:1023AC00FA8E7B6A1B699A4206D27B6A1B781946A5
:1023BC00786806F063F905E07B681B68796A184653
:1023CC0002F00EFC7B8D03F08003002B7ED097F87F
:1023DC002D305A1C13469B001344DB007A681344BF
:1023EC007B627B681B681A4697F82D309B00134460
:1023FC001B889BB223F4E14323F070033B847B687E
:10240C001B681A4697F82D309B001A443B8C6FEAD8
:10241C0043436FEA53439BB213807B6ADB78032BF5
:10242C000CD07B6ADB78002B08D07B6ADB78022B24
:10243C0046D17B8D03F48073002B41D17B681B68E4
:10244C00B3F850309BB21A467B6A1B78DB001344FE
:10245C0002335B007A681268134403F580631B88AF
:10246C00C3F30903FB837B6A9A69FB8B9A4206D9F7
:10247C007B6A9A69FB8BD21A7B6A9A6102E07B6A4F
:10248C0000229A617B6A9B69002B06D17B6A1B78C0
:10249C001946786806F00DF918E07B6A5A69FB8BCF
:1024AC001A447B6A5A617B6ADA69FB8B1A447B6A31
:1024BC00DA617B681B68796A184602F091FB05E0CB
:1024CC007B8D1A46796A786800F01BF97B681B686B
:1024DC00B3F844309BB21BB2002BFFF60AAD0023BD
:1024EC0018463837BD4680BD80B588B000AFF8605F
:1024FC00B9601346FB80FB8803F48043002B7ED02D
:10250C00FB681B68B3F850309BB21A46BB681B784B
:10251C00DB00134402335B00FA681268134403F5C2
:10252C0080631B88C3F309037B83BB689A697B8B2D
:10253C009A4206D3BB689A697B8BD21ABB689A61A4
:10254C0002E0BB6800229A61BB689B69002B23D117
:10255C00FB681B681A46BB681B789B0013441B88DE
:10256C009BB223F4804323F070033B833B8B83F4B7
:10257C0000533B83FB681B681A46BB681B789B00A7
:10258C001A443B8B43F07F4343F47F0343F40043F3
:10259C0043F080039BB21380FB8803F04003002BB5
:1025AC001FD0FB681B681A46BB681B789B00134442
:1025BC001B889BB223F4E04323F07003FB82FB687F
:1025CC001B681A46BB681B789B001A44FB8A43F0B5
:1025DC007F4343F47F0343F4004343F0C0039BB2B7
:1025EC0013807B8B002B00F08780FB681868BB681E
:1025FC005969BB681A897B8B04F0ADFA7CE0FB68E7
:10260C001B68B3F850309BB21A46BB681B78DB00D2
:10261C00134406335B00FA681268134403F58063B5
:10262C001B88C3F309037B83BB689A697B8B9A4233
:10263C0006D3BB689A697B8BD21ABB689A6102E09D
:10264C00BB6800229A61BB689B69002B23D1FB6895
:10265C001B681A46BB681B789B0013441B889BB2F3
:10266C0023F4804323F07003FB83FB8B83F4005330
:10267C00FB83FB681B681A46BB681B789B001A44DB
:10268C00FB8B43F07F4343F47F0343F4004343F05D
:10269C0080039BB21380FB8803F04003002B1FD1F7
:1026AC00FB681B681A46BB681B789B0013441B888D
:1026BC009BB223F4E04323F07003BB83FB681B68DD
:1026CC001A46BB681B789B001A44BB8B43F07F43B4
:1026DC0043F47F0343F4004343F0C0039BB21380E5
:1026EC007B8B002B08D0FB681868BB685969BB68EA
:1026FC005A897B8B04F02FFA7B8B18462037BD460A
:10270C0080BD80B5A2B000AFF860B9601346FB8005
:10271C00FB8803F04003002B00F0C781FB681B68AB
:10272C00B3F850309BB21A46BB681B78DB001344DD
:10273C0002335B00FA681268134403F580631B884C
:10274C00C3F30903A7F84E30BB689A69B7F84E304B
:10275C009A4207D9BB689A69B7F84E30D21ABB684F
:10276C009A6102E0BB6800229A61BB689B69002BEE
:10277C0040F0B980BB685B78002B26D1FB681B68E6
:10278C00BB62FB681B68B3F850309BB21A46BB6A3D
:10279C001344BB62BB681B781A01BB6A134403F277
:1027AC0004437B627B6A1B889BB223F4F8439AB286
:1027BC007B6A1A807B6A1B889BB26FEA43436FEA81
:1027CC0053439AB27B6A1A801AE0BB685B78012B80
:1027DC0016D1FB681B683B63FB681B68B3F8503071
:1027EC009BB21A463B6B13443B63BB681B781A01C4
:1027FC003B6B134403F20443FB62FB6A00221A8016
:10280C00FB681B683B62BB685B78002B26D1FB68BE
:10281C001B68BB61FB681B68B3F850309BB21A464F
:10282C00BB691344BB61BB681B781A01BB691344B9
:10283C0003F20C437B617B691B889BB223F4F84346
:10284C009AB27B691A807B691B889BB26FEA4343FF
:10285C006FEA53439AB27B691A8017E0BB685B78C6
:10286C00012B13D1FB681B68B3F850309BB21A468E
:10287C003B6A13443B62BB681B781A013B6A1344E6
:10288C0003F20C43FB61FB6900221A80BB681B78C6
:10289C001946F86805F00DFFFB8803F48043002B04
:1028AC0000F0D482FB681B681A46BB681B789B003F
:1028BC0013441B889BB223F4E04323F070037B8208
:1028CC00FB681B681A46BB681B789B001A447B8A02
:1028DC0043F07F4343F47F0343F4404343F08003CE
:1028EC009BB21380B2E2FB8803F48043002B21D00F
:1028FC00FB681B681A46BB681B789B0013441B883B
:10290C009BB223F4E04323F07003A7F84430FB6838
:10291C001B681A46BB681B789B001A44B7F84430F6
:10292C0043F07F4343F47F0343F4404343F080037D
:10293C009BB21380BB6893F82430012B40F0868245
:10294C00BB685A69B7F84E301A44BB685A61BB6809
:10295C00DA69B7F84E301A44BB68DA61BB681A6A98
:10296C00BB681B699A4209D3BB681B693B65BB6892
:10297C001A6A3B6DD21ABB681A6215E0BB681B6AF7
:10298C00002B07D1B7F84E303B65BB68002283F8AB
:10299C00242009E0BB68002283F82420BB681B6A52
:1029AC003B65BB6800221A62BB685B78002B55D173
:1029BC00FB681B68BB63FB681B68B3F850309BB2A9
:1029CC001A46BB6B1344BB63BB681B781A01BB6B09
:1029DC00134403F204437B633B6D002B12D17B6BDE
:1029EC001B889BB223F4F8439AB27B6B1A807B6BE7
:1029FC001B889BB26FEA43436FEA53439AB27B6BDB
:102A0C001A8047E03B6D3E2B11D83B6D5B08BB64D5
:102A1C003B6D03F00103002B02D0BB6C0133BB6494
:102A2C00BB6C9BB29B029AB27B6B1A8032E03B6D03
:102A3C005B09BB643B6D03F01F03002B02D1BB6C25
:102A4C00013BBB64BB6C9BB29B029BB26FEA4343E2
:102A5C006FEA53439AB27B6B1A801BE0BB685B78BE
:102A6C00012B17D1FB681B683B64FB681B68B3F830
:102A7C0050309BB21A463B6C13443B64BB681B78CA
:102A8C001A013B6C134403F20443FB633B6D9AB293
:102A9C00FB6B1A80FB681868BB685969BB681A899C
:102AAC003B6D9BB204F012F8D0E1FB681B68B3F8E5
:102ABC0050309BB21A46BB681B78DB0013440633BC
:102ACC005B00FA681268134403F580631B88C3F338
:102ADC000903A7F84E30BB689A69B7F84E309A4292
:102AEC0007D3BB689A69B7F84E30D21ABB689A61A3
:102AFC0002E0BB6800229A61BB689B69002B40F026
:102B0C00C480BB685B78002B26D1FB681B68FB6616
:102B1C00FB681B68B3F850309BB21A46FB6E13442B
:102B2C00FB66BB681B781A01FB6E134403F204436B
:102B3C00BB66BB6E1B889BB223F4F8439AB2BB6E88
:102B4C001A80BB6E1B889BB26FEA43436FEA5343F8
:102B5C009AB2BB6E1A801AE0BB685B78012B16D157
:102B6C00FB681B687B67FB681B68B3F850309BB233
:102B7C001A467B6F13447B67BB681B781A017B6F0B
:102B8C00134403F204433B673B6F00221A80FB683B
:102B9C001B68BB67BB685B78002B2FD1FB681B687D
:102BAC00C7F88030FB681B68B3F850309BB21A46EC
:102BBC00D7F880301344C7F88030BB681B781A01F3
:102BCC00D7F88030134403F20C43C7F88430D7F89D
:102BDC0084301B889BB223F4F8439AB2D7F8843024
:102BEC001A80D7F884301B889BB26FEA43436FEA94
:102BFC0053439AB2D7F884301A8017E0BB685B78DD
:102C0C00012B13D1FB681B68B3F850309BB21A46EA
:102C1C00BB6F1344BB67BB681B781A01BB6F1344B3
:102C2C0003F20C43FB67FB6F00221A80BB681B7816
:102C3C001946F86805F03DFDFB8803F48043002B32
:102C4C0040F00481FB681B681A46BB681B789B002C
:102C5C0013441B889BB223F4E04323F07003A7F8C2
:102C6C004630FB681B681A46BB681B789B001A44ED
:102C7C00B7F8463043F07F4343F47F0343F44043BB
:102C8C0043F080039BB21380E0E0FB8803F48043A5
:102C9C00002B21D1FB681B681A46BB681B789B0074
:102CAC0013441B889BB223F4E04323F07003A7F872
:102CBC004C30FB681B681A46BB681B789B001A4497
:102CCC00B7F84C3043F07F4343F47F0343F4404365
:102CDC0043F080039BB21380BB6893F82430012B24
:102CEC0040F0B480BB685A69B7F84E301A44BB68E0
:102CFC005A61BB68DA69B7F84E301A44BB68DA61BE
:102D0C00BB681A6ABB681B699A4209D3BB681B690A
:102D1C003B65BB681A6A3B6DD21ABB681A6215E038
:102D2C00BB681B6A002B07D1B7F84E303B65BB68FC
:102D3C00002283F8242009E0BB681B6A3B65BB6852
:102D4C0000221A62BB68002283F82420FB681B68EF
:102D5C007B66BB685B78002B55D1FB681B68FB65F9
:102D6C00FB681B68B3F850309BB21A46FB6D1344DA
:102D7C00FB65BB681B781A01FB6D134403F20C4313
:102D8C00BB653B6D002B12D1BB6D1B889BB223F432
:102D9C00F8439AB2BB6D1A80BB6D1B889BB26FEA6D
:102DAC0043436FEA53439AB2BB6D1A8044E03B6DC8
:102DBC003E2B11D83B6D5B087B653B6D03F001032B
:102DCC00002B02D07B6D01337B657B6D9BB29B022C
:102DDC009AB2BB6D1A802FE03B6D5B097B653B6D36
:102DEC0003F01F03002B02D17B6D013B7B657B6DD8
:102DFC009BB29B029BB26FEA43436FEA53439AB276
:102E0C00BB6D1A8018E0BB685B78012B14D1FB6892
:102E1C001B68B3F850309BB21A467B6E13447B662A
:102E2C00BB681B781A017B6E134403F20C433B66A0
:102E3C003B6D9AB23B6E1A80FB681868BB68596987
:102E4C00BB685A893B6D9BB203F040FEFB681B6864
:102E5C001A46BB681B789B0013441B889BB223F457
:102E6C00E04323F040033B823B8A83F010033B8218
:102E7C003B8A83F020033B82FB681B681A46BB68C5
:102E8C001B789B001A443B8A43F07F4343F47F0337
:102E9C0043F4004343F080039BB213800023184695
:102EAC008837BD4680BD80B487B000AFF8607B60CA
:102EBC000B467B8113463B817B8903F080039BB2DD
:102ECC00002B0BD07B8903F007035A1C13469B0085
:102EDC001344DB00FA6813447B6109E07A891346DA
:102EEC009B001344DB0003F5B473FA6813447B6155
:102EFC003B89002B07D17B6900221A737B689AB23D
:102F0C007B69DA800BE07B6901221A737B689AB2C9
:102F1C007B691A817B681B0C9AB27B695A810023EE
:102F2C0018461C37BD4680BC7047000080B586B083
:102F3C0000AF78607B68002B01D1012372E27B68C3
:102F4C001B6803F00103002B00F08780924B5B6839
:102F5C0003F00C03042B0CD08F4B5B6803F00C03B9
:102F6C00082B12D18C4B5B6803F48033B3F5803F94
:102F7C000BD1894B1B6803F40033002B6CD07B689E
:102F8C005B68002B68D101234CE27B685B68B3F56E
:102F9C00803F06D1804B1B687F4A43F4803313601B
:102FAC002EE07B685B68002B0CD17B4B1B687A4A4C
:102FBC0023F480331360784B1B68774A23F4802307
:102FCC0013601DE07B685B68B3F5A02F0CD1724BCE
:102FDC001B68714A43F4802313606F4B1B686E4A65
:102FEC0043F4803313600BE06B4B1B686A4A23F489
:102FFC0080331360684B1B68674A23F4802313608B
:10300C007B685B68002B13D0FDF7F4FF386108E098
:10301C00FDF7F0FF02463B69D31A642B01D9032359
:10302C0000E25D4B1B6803F40033002BF0D014E07E
:10303C00FDF7E0FF386108E0FDF7DCFF02463B6975
:10304C00D31A642B01D90323ECE1534B1B6803F413
:10305C000033002BF0D100E000BF7B681B6803F04D
:10306C000203002B63D04C4B5B6803F00C03002B6A
:10307C000BD0494B5B6803F00C03082B1CD1464B5F
:10308C005B6803F48033002B16D1434B1B6803F0B1
:10309C000203002B05D07B681B69012B01D0012397
:1030AC00C0E13D4B1B6823F0F8027B685B69DB00D9
:1030BC00394913430B603AE07B681B69002B20D025
:1030CC00364B01221A60FDF795FF386108E0FDF7D9
:1030DC0091FF02463B69D31A022B01D90323A1E1CC
:1030EC002D4B1B6803F00203002BF0D02A4B1B68FE
:1030FC0023F0F8027B685B69DB00274913430B6004
:10310C0015E0264B00221A60FDF774FF386108E0C9
:10311C00FDF770FF02463B69D31A022B01D903233A
:10312C0080E11D4B1B6803F00203002BF0D17B6880
:10313C001B6803F00803002B3AD07B689B69002BBB
:10314C0019D0174B01221A60FDF754FF386108E0C3
:10315C00FDF750FF02463B69D31A022B01D903231A
:10316C0060E10D4B5B6A03F00203002BF0D00120F1
:10317C0000F0A6FA1CE00A4B00221A60FDF73AFF99
:10318C0038610FE0FDF736FF02463B69D31A022B7C
:10319C0008D9032346E100BF001002400000424260
:1031AC0080044242924B5B6A03F00203002BE9D18C
:1031BC007B681B6803F00403002B00F0A68000233F
:1031CC00FB758B4BDB6903F08053002B0DD1884BC7
:1031DC00DB69874A43F08053D361854BDB6903F08D
:1031EC008053BB60BB680123FB75824B1B6803F4E7
:1031FC008073002B18D17F4B1B687E4A43F480737D
:10320C001360FDF7F7FE386108E0FDF7F3FE0246A8
:10321C003B69D31A642B01D9032303E1754B1B685B
:10322C0003F48073002BF0D07B68DB68012B06D194
:10323C006F4B1B6A6E4A43F0010313622DE07B68EF
:10324C00DB68002B0CD16A4B1B6A694A23F0010323
:10325C001362674B1B6A664A23F0040313621CE07B
:10326C007B68DB68052B0CD1614B1B6A604A43F011
:10327C00040313625E4B1B6A5D4A43F00103136245
:10328C000BE05B4B1B6A5A4A23F001031362584B49
:10329C001B6A574A23F0040313627B68DB68002B1C
:1032AC0015D0FDF7A7FE38610AE0FDF7A3FE024634
:1032BC003B69D31A41F28832934201D90323B1E01E
:1032CC004B4B1B6A03F00203002BEED014E0FDF70E
:1032DC0091FE38610AE0FDF78DFE02463B69D31A78
:1032EC0041F28832934201D903239BE0404B1B6A85
:1032FC0003F00203002BEED1FB7D012B05D13C4BDF
:10330C00DB693B4A23F08053D3617B68DB69002B7C
:10331C0000F08780364B5B6803F00C03082B61D000
:10332C007B68DB69022B46D1334B00221A60FDF718
:10333C0061FE386108E0FDF75DFE02463B69D31A79
:10334C00022B01D903236DE0294B1B6803F000739A
:10335C00002BF0D17B681B6AB3F5803F08D1244B5E
:10336C005B6823F400327B689B68214913434B60F4
:10337C001F4B5B6823F474127B68196A7B685B6A69
:10338C000B431B4913434B601B4B01221A60FDF787
:10339C0031FE386108E0FDF72DFE02463B69D31A79
:1033AC00022B01D903233DE0114B1B6803F0007382
:1033BC00002BF0D035E0104B00221A60FDF71AFEFE
:1033CC00386108E0FDF716FE02463B69D31A022B62
:1033DC0001D9032326E0064B1B6803F00073002B76
:1033EC00F0D11EE07B68DB69012B07D1012319E0CA
:1033FC000010024000700040600042420B4B5B68C2
:10340C00FB60FB6803F480327B681B6A9A4206D12E
:10341C00FB6803F470127B685B6A9A4201D001234B
:10342C0000E0002318461837BD4680BD001002404E
:10343C0080B584B000AF786039607B68002B01D117
:10344C000123D0E06A4B1B6803F007033A689A42E9
:10345C0010D9674B1B6823F0070265493B6813437F
:10346C000B60634B1B6803F007033A689A4201D068
:10347C000123B8E07B681B6803F00203002B20D00B
:10348C007B681B6803F00403002B05D0594B5B6869
:10349C00584A43F4E06353607B681B6803F00803ED
:1034AC00002B05D0534B5B68524A43F46053536076
:1034BC00504B5B6823F0F0027B689B684D491343CB
:1034CC004B607B681B6803F00103002B40D07B68CA
:1034DC005B68012B07D1474B1B6803F40033002BAF
:1034EC0015D101237FE07B685B68022B07D1414B30
:1034FC001B6803F00073002B09D1012373E03D4BD3
:10350C001B6803F00203002B01D101236BE0394B44
:10351C005B6823F003027B685B68364913434B609E
:10352C00FDF768FDF8600AE0FDF764FD0246FB68F4
:10353C00D31A41F28832934201D9032353E02D4B25
:10354C005B6803F00C027B685B689B009A42EBD1D2
:10355C00274B1B6803F007033A689A4210D2244B9E
:10356C001B6823F0070222493B6813430B60204B76
:10357C001B6803F007033A689A4201D0012332E03A
:10358C007B681B6803F00403002B08D0194B5B68A5
:10359C0023F4E0627B68DB68164913434B607B685D
:1035AC001B6803F00803002B09D0124B5B6823F453
:1035BC0060527B681B69DB000E4913434B6000F0C3
:1035CC0021F802460B4B5B681B0903F00F030A49F9
:1035DC00CB5C22FA03F3094A1360094B1B681846AB
:1035EC00FDF7C6FC002318461037BD4680BD00BF52
:1035FC000020024000100240889C000808000020B7
:10360C000C00002090B48AB000AF294B3C1D0FCBAE
:10361C0084E80F0040F201233B800023FB61002370
:10362C00BB6100237B6200237B6100233B62214B47
:10363C005B68FB61FB6903F00C03042B02D0082BC5
:10364C0003D02BE01C4B3B622BE0FB699B0C03F083
:10365C000F0328333B4413F8243C7B61FB6903F4D0
:10366C008033002B12D0134B5B685B0C03F001030F
:10367C0028333B4413F8283CBB617B690E4A03FB9F
:10368C0002F2BB69B2FBF3F37B6204E07B690B4A89
:10369C0002FB03F37B627B6A3B6202E0064B3B62FC
:1036AC0000BF3B6A18462837BD4690BC704700BF28
:1036BC00009B00080010024000127A0000093D0037
:1036CC0080B485B000AF78600A4B1B680A4AA2FB35
:1036DC0003235B0A7A6802FB03F3FB6000BFFB6801
:1036EC005A1EFA60002BF9D100BF00BF1437BD463B
:1036FC0080BC704708000020D34D621080B586B0A6
:10370C0000AF786000233B610023FB607B681B6883
:10371C0003F00103002B7DD00023FB754F4BDB69BD
:10372C0003F08053002B0DD14C4BDB694B4A43F01B
:10373C008053D361494BDB6903F08053BB60BB689A
:10374C000123FB75464B1B6803F48073002B18D1C7
:10375C00434B1B68424A43F480731360FDF74AFCE9
:10376C00386108E0FDF746FC02463B69D31A642B2E
:10377C0001D903236DE03A4B1B6803F48073002BD3
:10378C00F0D0364B1B6A03F44073FB60FB68002BD4
:10379C002ED07B685B6803F44073FA689A4227D09A
:1037AC002E4B1B6A23F44073FB602E4B01221A60D4
:1037BC002C4B00221A60294AFB681362FB6803F049
:1037CC000103002B14D0FDF715FC38610AE0FDF75E
:1037DC0011FC02463B69D31A41F28832934201D95B
:1037EC00032336E01D4B1B6A03F00203002BEED0C3
:1037FC001A4B1B6A23F440727B685B6817491343AE
:10380C000B62FB7D012B05D1144BDB69134A23F0B2
:10381C008053D3617B681B6803F00203002B08D034
:10382C000E4B5B6823F440427B689B680B49134347
:10383C004B607B681B6803F01003002B08D0074B10
:10384C005B6823F480027B68DB68044913434B609C
:10385C00002318461837BD4680BD00BF001002403B
:10386C00007000404004424280B582B000AF7860E6
:10387C007B68002B01D1012341E07B6893F83D303C
:10388C00DBB2002B06D17B68002283F83C207868E1
:10389C00FDF796FA7B68022283F83D207B681A6854
:1038AC007B6804331946104600F070FA7B680122DD
:1038BC0083F846207B68012283F83E207B68012236
:1038CC0083F83F207B68012283F840207B6801222B
:1038DC0083F841207B68012283F842207B68012217
:1038EC0083F843207B68012283F844207B68012203
:1038FC0083F845207B68012283F83D20002318467D
:10390C000837BD4680BD000080B485B000AF78603C
:10391C007B6893F83D30DBB2012B01D001233AE0F8
:10392C007B68022283F83D207B681B68DA687B6821
:10393C001B6842F00102DA607B681B68184A9342EC
:10394C000ED07B681B68B3F1804F09D07B681B6875
:10395C00144A934204D07B681B68134A934211D1DA
:10396C007B681B689B6803F00703FB60FB68062BF6
:10397C0010D07B681B681A687B681B6842F00102D8
:10398C001A6007E07B681B681A687B681B6842F04A
:10399C0001021A60002318461437BD4680BC7047DC
:1039AC00002C0140000400400008004080B582B0AB
:1039BC0000AF78607B681B681B6903F00203022B65
:1039CC0022D17B681B68DB6803F00203022B1BD13E
:1039DC007B681B686FF002021A617B6801221A7700
:1039EC007B681B689B6903F00303002B03D078688A
:1039FC0000F0B1F905E0786800F0A4F9786800F0FF
:103A0C00B3F97B6800221A777B681B681B6903F08B
:103A1C000403042B22D17B681B68DB6803F00403CE
:103A2C00042B1BD17B681B686FF004021A617B6846
:103A3C0002221A777B681B689B6903F44073002B86
:103A4C0003D0786800F087F905E0786800F07AF91F
:103A5C00786800F089F97B6800221A777B681B680C
:103A6C001B6903F00803082B22D17B681B68DB68F9
:103A7C0003F00803082B1BD17B681B686FF008024E
:103A8C001A617B6804221A777B681B68DB6903F078
:103A9C000303002B03D0786800F05DF905E078682B
:103AAC0000F050F9786800F05FF97B6800221A7713
:103ABC007B681B681B6903F01003102B22D17B68F9
:103ACC001B68DB6803F01003102B1BD17B681B6891
:103ADC006FF010021A617B6808221A777B681B68EA
:103AEC00DB6903F44073002B03D0786800F033F9E2
:103AFC0005E0786800F026F9786800F035F97B6805
:103B0C0000221A777B681B681B6903F00103012BE9
:103B1C000ED17B681B68DB6803F00103012B07D116
:103B2C007B681B686FF001021A617868FDF7FAF880
:103B3C007B681B681B6903F08003802B0ED17B68AC
:103B4C001B68DB6803F08003802B07D17B681B6844
:103B5C006FF080021A61786800F077FA7B681B6856
:103B6C001B6903F04003402B0ED17B681B68DB689C
:103B7C0003F04003402B07D17B681B686FF04002B9
:103B8C001A61786800F0F9F87B681B681B6903F010
:103B9C002003202B0ED17B681B68DB6803F020030D
:103BAC00202B07D17B681B686FF020021A617868A4
:103BBC0000F042FA00BF0837BD4680BD80B584B026
:103BCC0000AF786039607B6893F83C30012B01D1F1
:103BDC000223B3E07B68012283F83C207B6802223D
:103BEC0083F83D207B681B689B68FB60FB6823F0B7
:103BFC007703FB60FB6823F47F43FB607B681B68E7
:103C0C00FA689A603B681B68B3F5005F3ED0B3F569
:103C1C00005F00F28780B3F5805F00F08580B3F51C
:103C2C00805F7FD8702B1AD0702B7BD8602B50D034
:103C3C00602B77D8502B3CD0502B73D8402B58D0BE
:103C4C00402B6FD8302B64D0302B6BD8202B60D00E
:103C5C00202B67D8002B5CD0102B5AD062E07B68ED
:103C6C0018683B6899683B685A683B68DB6800F0E9
:103C7C0066F97B681B689B68FB60FB6843F0770305
:103C8C00FB607B681B68FA689A604EE07B6818687A
:103C9C003B6899683B685A683B68DB6800F04FF9F1
:103CAC007B681B689A687B681B6842F480429A6048
:103CBC003BE07B6818683B6859683B68DB681A46D0
:103CCC0000F0C6F87B681B685021184600F01DF9FF
:103CDC002BE07B6818683B6859683B68DB681A46C0
:103CEC0000F0E4F87B681B686021184600F00DF9C1
:103CFC001BE07B6818683B6859683B68DB681A46B0
:103D0C0000F0A6F87B681B684021184600F0FDF80F
:103D1C000BE07B681A683B681B681946104600F07C
:103D2C00F4F802E000BF00E000BF7B68012283F8DA
:103D3C003D207B68002283F83C2000231846103776
:103D4C00BD4680BD80B483B000AF786000BF0C3737
:103D5C00BD4680BC704780B483B000AF786000BFB4
:103D6C000C37BD4680BC704780B483B000AF786020
:103D7C0000BF0C37BD4680BC704780B483B000AF29
:103D8C00786000BF0C37BD4680BC704780B485B0EE
:103D9C0000AF786039607B681B68FB607B68294AE0
:103DAC0093420BD07B68B3F1804F07D07B68264AD7
:103DBC00934203D07B68254A934208D1FB6823F0D9
:103DCC007003FB603B685B68FA681343FB607B68BD
:103DDC001C4A93420BD07B68B3F1804F07D07B68B1
:103DEC00194A934203D07B68184A934208D1FB6866
:103DFC0023F44073FB603B68DB68FA681343FB6099
:103E0C00FB6823F080023B685B691343FB607B68B3
:103E1C00FA681A603B689A687B68DA623B681A68D1
:103E2C007B689A627B68074A934203D13B681A69A4
:103E3C007B681A637B6801225A6100BF1437BD4648
:103E4C0080BC7047002C014000040040000800407A
:103E5C0080B487B000AFF860B9607A60FB681B6A09
:103E6C007B61FB681B6A23F00102FB681A62FB682A
:103E7C009B693B613B6923F0F0033B617B681B0151
:103E8C003A6913433B617B6923F00A037B617A69CE
:103E9C00BB6813437B61FB683A699A61FB687A697A
:103EAC001A6200BF1C37BD4680BC704780B487B017
:103EBC0000AFF860B9607A60FB681B6A23F01002EF
:103ECC00FB681A62FB689B697B61FB681B6A3B6140
:103EDC007B6923F470437B617B681B037A69134312
:103EEC007B613B6923F0A0033B61BB681B013A6912
:103EFC0013433B61FB687A699A61FB683A691A6201
:103F0C0000BF1C37BD4680BC704780B485B000AF85
:103F1C00786039607B689B68FB60FB6823F07003FA
:103F2C00FB603A68FB68134343F00703FB607B6854
:103F3C00FA689A6000BF1437BD4680BC704780B4E5
:103F4C0087B000AFF860B9607A603B60FB689B6833
:103F5C007B617B6923F47F437B613B681A027B683E
:103F6C001A43BB6813437A6913437B61FB687A6914
:103F7C009A6000BF1C37BD4680BC704780B485B0CA
:103F8C0000AF786039607B6893F83C30012B01D12D
:103F9C00022346E07B68012283F83C207B680222E6
:103FAC0083F83D207B681B685B68FB607B681B6843
:103FBC009B68BB60FB6823F07003FB603B681B686D
:103FCC00FA681343FB607B681B68FA685A607B686D
:103FDC001B68164A93420ED07B681B68B3F1804F66
:103FEC0009D07B681B68124A934204D07B681B681B
:103FFC00104A93420CD1BB6823F08003BB603B6832
:10400C005B68BA681343BB607B681B68BA689A60CC
:10401C007B68012283F83D207B68002283F83C20DA
:10402C00002318461437BD4680BC7047002C014055
:10403C00000400400008004080B483B000AF7860FA
:10404C0000BF0C37BD4680BC704780B483B000AF56
:10405C00786000BF0C37BD4680BC704784B080B41C
:10406C0083B000AF786007F1140080E80E000023E5
:10407C0018460C37BD4680BC04B0704780B485B080
:10408C0000AF78607B680022A3F844204FF43F43D4
:10409C00FB60FB689AB27B68A3F8402000231846AB
:1040AC001437BD4680BC704780B485B000AF7860D3
:1040BC004FF43F43FB607B68B3F840309AB2FB6827
:1040CC009BB2DB439BB213409AB27B68A3F84020AF
:1040DC00002318461437BD4680BC704780B483B0AB
:1040EC0000AF78600B46FB70002318460C37BD46BA
:1040FC0080BC704784B080B483B000AF786007F1A7
:10410C00140080E80E007B680122A3F840207B6835
:10411C000022A3F840207B680022A3F844207B688F
:10412C000022A3F85020002318460C37BD4680BC53
:10413C0004B0704780B49BB000AF78603960002346
:10414C0087F867307A683B681B789B0013441B88A0
:10415C009BB223F4EC4323F07003A7F864303B6864
:10416C00DB78032B1FD801A252F823F089410008F9
:10417C00A5410008BB41000897410008B7F864301E
:10418C0043F40073A7F8643012E0B7F8643043F4DA
:10419C00C063A7F864300BE0B7F8643043F4806375
:1041AC00A7F8643004E0012387F8673000E000BF13
:1041BC007A683B681B789B001A44B7F8643043F06C
:1041CC007F4343F47F0343F4004343F080039BB2EB
:1041DC0013807A683B681B789B0013441B889BB246
:1041EC0023F4E04323F070039AB23B681B789BB234
:1041FC001343A7F85E307A683B681B789B001A441F
:10420C00B7F85E3043F07F4343F47F0343F400433D
:10421C0043F080039BB213803B681B7B002B40F068
:10422C0049813B685B78002B00F084807B687B6164
:10423C007B68B3F850309BB21A467B6913447B61A0
:10424C003B681B781A017B69134403F580633B615F
:10425C003B68DB885B089BB25B009AB23B691A80B7
:10426C007A683B681B789B0013441B88FB81FB8995
:10427C0003F04003002B1BD07A683B681B789B0033
:10428C0013441B889BB223F4E04323F07003BB81DF
:10429C007A683B681B789B001A44BB8943F07F43C8
:1042AC0043F47F0343F4004343F0C0039BB21380F9
:1042BC003B68DB78012B20D07A683B681B789B002D
:1042CC0013441B889BB223F4E04323F040033B814F
:1042DC003B8983F020033B817A683B681B789B0009
:1042EC001A443B8943F07F4343F47F0343F4004378
:1042FC0043F080039BB213807FE27A683B681B78A3
:10430C009B0013441B889BB223F4E04323F040032F
:10431C007B817A683B681B789B001A447B8943F04D
:10432C007F4343F47F0343F4004343F080039BB289
:10433C00138062E27B68FB627B68B3F850309BB2FF
:10434C001A46FB6A1344FB623B681B781A01FB6A32
:10435C00134403F58163BB623B68DB885B089BB24B
:10436C005B009AB2BB6A1A807B687B627B68B3F88D
:10437C0050309BB21A467B6A13447B623B681B78B5
:10438C001A017B6A134403F20C433B623B681B69C2
:10439C00002B12D13B6A1B889BB223F4F8439AB2D0
:1043AC003B6A1A803B6A1B889BB26FEA43436FEAF5
:1043BC0053439AB23B6A1A802FE03B681B693E2B31
:1043CC0013D83B681B695B083B663B681B6903F0B1
:1043DC000103002B02D03B6E01333B663B6E9BB25C
:1043EC009B029AB23B6A1A8017E03B681B695B0917
:1043FC003B663B681B6903F01F03002B02D13B6E2D
:10440C00013B3B663B6E9BB29B029BB26FEA434304
:10441C006FEA53439AB23B6A1A807A683B681B78FE
:10442C009B0013441B88FB83FB8B03F48043002B02
:10443C001BD07A683B681B789B0013441B889BB28B
:10444C0023F4E04323F07003BB837A683B681B784A
:10445C009B001A44BB8B43F07F4343F47F0343F42C
:10446C00404343F080039BB213807A683B681B780F
:10447C009B0013441B889BB223F4804323F07003EE
:10448C007B837B8B83F480537B837B8B83F4005304
:10449C007B837A683B681B789B001A447B8B43F0C8
:1044AC007F4343F47F0343F4004343F080039BB208
:1044BC001380A2E17A683B681B789B0013441B882D
:1044CC009BB223F4E04323F07003A7F85C307A68C6
:1044DC003B681B789B001A44B7F85C3043F07F4371
:1044EC0043F47F0343F4014343F080039BB21380F6
:1044FC007B68BB657B68B3F850309BB21A46BB6DCA
:10450C001344BB653B681B781A01BB6D134403F560
:10451C0080637B653B681B895B089BB25B009AB22E
:10452C007B6D1A807B683B657B68B3F850309BB21F
:10453C001A463B6D13443B653B681B781A013B6D77
:10454C00134403F58163FB643B685B895B089BB296
:10455C005B009AB2FB6C1A803B685B78002B40F0D6
:10456C0091807A683B681B789B0013441B88BB873F
:10457C00BB8F03F48043002B1BD07A683B681B78FD
:10458C009B0013441B889BB223F4E04323F070037D
:10459C007B877A683B681B789B001A447B8F43F0BF
:1045AC007F4343F47F0343F4404343F080039BB2C7
:1045BC0013807A683B681B789B0013441B883B87ED
:1045CC003B8F03F04003002B1BD07A683B681B78B1
:1045DC009B0013441B889BB223F4E04323F070032D
:1045EC00FB867A683B681B789B001A44FB8E43F071
:1045FC007F4343F47F0343F4004343F0C0039BB277
:10460C0013807A683B681B789B0013441B889BB211
:10461C0023F4804323F07003BB86BB8E83F480535A
:10462C00BB86BB8E83F40053BB867A683B681B78D1
:10463C009B001A44BB8E43F07F4343F47F0343F447
:10464C00004343F080039BB213807A683B681B786D
:10465C009B0013441B889BB223F4E04323F04003DC
:10466C007B867A683B681B789B001A447B8E43F0F0
:10467C007F4343F47F0343F4004343F080039BB236
:10468C001380BAE07A683B681B789B0013441B8844
:10469C00A7F84A30B7F84A3003F48043002B1DD0FA
:1046AC007A683B681B789B0013441B889BB223F4ED
:1046BC00E04323F07003A7F848307A683B681B7816
:1046CC009B001A44B7F8483043F07F4343F47F0310
:1046DC0043F4404343F080039BB213807A683B68F9
:1046EC001B789B0013441B88A7F84630B7F846305C
:1046FC0003F04003002B1DD07A683B681B789B00AD
:10470C0013441B889BB223F4E04323F07003A7F8F7
:10471C0044307A683B681B789B001A44B7F84430E5
:10472C0043F07F4343F47F0343F4004343F0C0035F
:10473C009BB213803B68DB78012B24D07A683B68F2
:10474C001B789B0013441B889BB223F4E04323F09B
:10475C004003A7F84030B7F8403083F02003A7F8A7
:10476C0040307A683B681B789B001A44B7F840309D
:10477C0043F07F4343F47F0343F4004343F080034F
:10478C009BB213801DE07A683B681B789B00134436
:10479C001B889BB223F4E04323F04003A7F842307C
:1047AC007A683B681B789B001A44B7F8423043F098
:1047BC007F4343F47F0343F4004343F080039BB2F5
:1047CC0013807A683B681B789B0013441B889BB250
:1047DC0023F4804323F07003FB877A683B681B78D3
:1047EC009B001A44FB8F43F07F4343F47F0343F455
:1047FC00004343F080039BB2138097F86730184650
:10480C006C37BD4680BC704780B48DB000AF78600B
:10481C0039603B681B7B002B40F08E803B685B78DB
:10482C00002B44D07A683B681B789B0013441B8890
:10483C00BB81BB8903F04003002B1BD07A683B681B
:10484C001B789B0013441B889BB223F4E04323F09A
:10485C0070037B817A683B681B789B001A447B89C8
:10486C0043F07F4343F47F0343F4004343F0C0031E
:10487C009BB213807A683B681B789B0013441B889F
:10488C009BB223F4E04323F040033B817A683B68FE
:10489C001B789B001A443B8943F07F4343F47F030E
:1048AC0043F4004343F080039BB2138092E17A6897
:1048BC003B681B789B0013441B887B827B8A03F428
:1048CC008043002B1BD07A683B681B789B001344F9
:1048DC001B889BB223F4E04323F070033B827A687D
:1048EC003B681B789B001A443B8A43F07F4343F49C
:1048FC007F0343F4404343F080039BB213807A68F8
:10490C003B681B789B0013441B889BB223F48043A9
:10491C0023F07003FB817A683B681B789B001A4478
:10492C00FB8943F07F4343F47F0343F4004343F09C
:10493C0080039BB213804DE13B685B78002B40F009
:10494C00A5807A683B681B789B0013441B883B84CA
:10495C003B8C03F48043002B1BD07A683B681B789C
:10496C009B0013441B889BB223F4E04323F0700399
:10497C00FB837A683B681B789B001A44FB8B43F0E3
:10498C007F4343F47F0343F4404343F080039BB2E3
:10499C0013807A683B681B789B0013441B88BB838D
:1049AC00BB8B03F04003002B1BD07A683B681B7851
:1049BC009B0013441B889BB223F4E04323F0700349
:1049CC007B837A683B681B789B001A447B8B43F093
:1049DC007F4343F47F0343F4004343F0C0039BB293
:1049EC0013807A683B681B789B0013441B889BB22E
:1049FC0023F4E04323F070033B837A683B681B7815
:104A0C009B001A443B8B43F07F4343F47F0343F4F6
:104A1C00004343F0C0039BB213807A683B681B7859
:104A2C009B0013441B889BB223F4804323F0700338
:104A3C00FB827A683B681B789B001A44FB8A43F024
:104A4C007F4343F47F0343F4004343F080039BB262
:104A5C0013807A683B681B789B0013441B889BB2BD
:104A6C0023F4E04323F04003BB827A683B681B7855
:104A7C009B001A44BB8A43F07F4343F47F0343F407
:104A8C00004343F080039BB21380A3E07A683B6839
:104A9C001B789B0013441B88FB85FB8D03F4804320
:104AAC00002B1BD07A683B681B789B0013441B8837
:104ABC009BB223F4E04323F07003BB857A683B6818
:104ACC001B789B001A44BB8D43F07F4343F47F0358
:104ADC0043F4404343F080039BB213807A683B68F5
:104AEC001B789B0013441B887B857B8D03F0400354
:104AFC00002B1BD07A683B681B789B0013441B88E7
:104B0C009BB223F4E04323F070033B857A683B6847
:104B1C001B789B001A443B8D43F07F4343F47F0387
:104B2C0043F4004343F0C0039BB213807A683B68A4
:104B3C001B789B0013441B889BB223F4E04323F0A7
:104B4C007003FB847A683B681B789B001A44FB8CCF
:104B5C0043F07F4343F47F0343F4404343F080032B
:104B6C009BB213807A683B681B789B0013441B88AC
:104B7C009BB223F4E04323F04003BB847A683B6888
:104B8C001B789B001A44BB8C43F07F4343F47F0398
:104B9C0043F4004343F080039BB213807A683B6874
:104BAC001B789B0013441B889BB223F4804323F097
:104BBC0070037B847A683B681B789B001A447B8C5F
:104BCC0043F07F4343F47F0343F4004343F08003FB
:104BDC009BB21380002318463437BD4680BC704707
:104BEC0080B5CCB000AF07F59873A3F59673186039
:104BFC0007F59873A3F59873196007F59873A3F5E7
:104C0C0098731B685B78012B41F07D8107F59873D5
:104C1C00A3F598731B689A6907F59873A3F59873B5
:104C2C001B681B699A4208D907F59873A3F598730A
:104C3C001B681B69C7F82C3107E007F59873A3F5BF
:104C4C0098731B689B69C7F82C3107F59873A3F50B
:104C5C0098731B681B7B002B52D107F59873A3F537
:104C6C0098731B68596907F59873A3F598731B68BB
:104C7C00DA88D7F82C319BB207F59870A0F59670AE
:104C8C00006801F023FF07F59873A3F5907307F5FF
:104C9C009872A2F5967212681A6007F59873A3F5CC
:104CAC0096731B68B3F850309BB2194607F598738E
:104CBC00A3F5907307F59872A2F5907212680A44E6
:104CCC001A6007F59873A3F598731B681B781A0183
:104CDC0007F59873A3F590731B68134403F2044211
:104CEC0007F59873A3F592731A60D7F82C319AB222
:104CFC0007F59873A3F592731B681A8001F0B5B889
:104D0C0007F59873A3F598731B68DB78022B40F0BA
:104D1C00C68407F59873A3F598731B681A6A07F590
:104D2C009873A3F598731B681B699A4240F24384ED
:104D3C0007F59873A3F596731A6807F59873A3F59E
:104D4C0098731B681B789B0013441B889BB223F43D
:104D5C00E04323F07003A7F8563007F59873A3F5DA
:104D6C0096731A6807F59873A3F598731B681B78EC
:104D7C009B001A44B7F8563043F07F4343F47F034B
:104D8C0043F4014343F080039BB2138007F59873FF
:104D9C00A3F598731B681A6AD7F82C31D21A07F549
:104DAC009873A3F598731B681A6207F59873A3F5AB
:104DBC0096731A6807F59873A3F598731B681B789C
:104DCC009B0013441B889BB203F04003002B00F0A4
:104DDC003E8207F59873A3F5807307F59872A2F5D8
:104DEC00967212681A6007F59873A3F598731B688E
:104DFC005B78002B40F09A8007F59873A3F58473C9
:104E0C0007F59872A2F5967212681A6007F59873F6
:104E1C00A3F596731B68B3F850309BB2194607F58F
:104E2C009873A3F5847307F59872A2F584721268CF
:104E3C000A441A6007F59873A3F598731B681B78DE
:104E4C001A0107F59873A3F584731B68134403F2D6
:104E5C000C4207F59873A3F586731A60D7F82C31BA
:104E6C00002B22D107F59873A3F586731B681B885A
:104E7C009BB223F4F8439AB207F59873A3F58673A3
:104E8C001B681A8007F59873A3F586731B681B883B
:104E9C009BB26FEA43436FEA53439AB207F5987398
:104EAC00A3F586731B681A8079E0D7F82C313E2B5A
:104EBC001BD8D7F82C315B08C7F82831D7F82C3120
:104ECC0003F00103002B04D0D7F828310133C7F8C5
:104EDC002831D7F828319BB29B029AB207F5987308
:104EEC00A3F586731B681A8059E0D7F82C315B093F
:104EFC00C7F82831D7F82C3103F01F03002B04D14D
:104F0C00D7F82831013BC7F82831D7F828319BB2A4
:104F1C009B029BB26FEA43436FEA53439AB207F585
:104F2C009873A3F586731B681A8038E007F598739D
:104F3C00A3F598731B685B78012B30D107F5987338
:104F4C00A3F596731B68B3F850309BB2194607F55E
:104F5C009873A3F5807307F59872A2F580721268A6
:104F6C000A441A6007F59873A3F598731B681B78AD
:104F7C001A0107F59873A3F580731B68134403F2A9
:104F8C000C4207F59873A3F582731A60D7F82C318D
:104F9C009AB207F59873A3F582731B681A8007F50C
:104FAC009873A3F598731B685B89A7F8963007F57F
:104FBC009873A3F598731B685969D7F82C319BB279
:104FCC00B7F8962007F59870A0F59670006801F078
:104FDC007DFD07F59873A3F598731B685A69D7F88C
:104FEC002C311A4407F59873A3F598731B685A6112
:104FFC0007F59873A3F598731B681A6A07F59873ED
:10500C00A3F598731B681B699A420FD907F598731F
:10501C00A3F598731B681A6AD7F82C31D21A07F5C6
:10502C009873A3F598731B681A620EE007F59873D2
:10503C00A3F598731B681B6AC7F82C3107F5987396
:10504C00A3F598731B6800221A6207F59873A3F5F1
:10505C0098731B685B78002B40F09A8007F5987367
:10506C00A3F58C7307F59872A2F5967212681A6004
:10507C0007F59873A3F596731B68B3F850309BB281
:10508C00194607F59873A3F58C7307F59872A2F57A
:10509C008C7212680A441A6007F59873A3F598731A
:1050AC001B681B781A0107F59873A3F58C731B68A2
:1050BC00134403F2044207F59873A3F58E731A6038
:1050CC00D7F82C31002B22D107F59873A3F58E73EA
:1050DC001B681B889BB223F4F8439AB207F59873AC
:1050EC00A3F58E731B681A8007F59873A3F58E735E
:1050FC001B681B889BB26FEA43436FEA53439AB217
:10510C0007F59873A3F58E731B681A8083E0D7F8A4
:10511C002C313E2B1BD8D7F82C315B08C7F8243127
:10512C00D7F82C3103F00103002B04D0D7F824312D
:10513C000133C7F82431D7F824319BB29B029AB2C1
:10514C0007F59873A3F58E731B681A8063E0D7F884
:10515C002C315B09C7F82431D7F82C3103F01F032D
:10516C00002B04D1D7F82431013BC7F82431D7F8F0
:10517C0024319BB29B029BB26FEA43436FEA5343C9
:10518C009AB207F59873A3F58E731B681A8042E0E8
:10519C0007F59873A3F598731B685B78012B3AD1CC
:1051AC0007F59873A3F5887307F59872A2F59672B4
:1051BC0012681A6007F59873A3F596731B68B3F819
:1051CC0050309BB2194607F59873A3F5887307F511
:1051DC009872A2F5887212680A441A6007F59873DF
:1051EC00A3F598731B681B781A0107F59873A3F540
:1051FC0088731B68134403F2044207F59873A3F5F4
:10520C008A731A60D7F82C319AB207F59873A3F504
:10521C008A731B681A8007F59873A3F598731B683B
:10522C001B89A7F8963007F59873A3F598731B683C
:10523C005969D7F82C319BB2B7F8962007F59870BE
:10524C00A0F59670006801F041FC00F00EBE07F569
:10525C009873A3F598731B685B78002B6DD107F5D9
:10526C009873A3F596731B68BB6407F59873A3F545
:10527C0096731B68B3F850309BB21A46BB6C134440
:10528C00BB6407F59873A3F598731B681B781A0118
:10529C00BB6C134403F204437B64D7F82C31002B12
:1052AC0012D17B6C1B889BB223F4F8439AB27B6CB3
:1052BC001A807B6C1B889BB26FEA43436FEA5343A3
:1052CC009AB27B6C1A8063E0D7F82C313E2B17D83E
:1052DC00D7F82C315B08C7F82031D7F82C3103F004
:1052EC000103002B04D0D7F820310133C7F820314B
:1052FC00D7F820319BB29B029AB27B6C1A8047E0A4
:10530C00D7F82C315B09C7F82031D7F82C3103F0D2
:10531C001F03002B04D1D7F82031013BC7F82031F3
:10532C00D7F820319BB29B029BB26FEA43436FEAE2
:10533C0053439AB27B6C1A802AE007F59873A3F555
:10534C0098731B685B78012B22D107F59873A3F532
:10535C0096731B683B6507F59873A3F596731B68EA
:10536C00B3F850309BB21A463B6D13443B6507F5BE
:10537C009873A3F598731B681B781A013B6D134443
:10538C0003F20443FB64D7F82C319AB2FB6C1A80FD
:10539C0007F59873A3F598731B681B89A7F89630CB
:1053AC0007F59873A3F598731B685969D7F82C31D6
:1053BC009BB2B7F8962007F59870A0F59670006828
:1053CC0001F084FB07F59873A3F598731B685A6971
:1053DC00D7F82C311A4407F59873A3F598731B680A
:1053EC005A6107F59873A3F598731B681A6A07F549
:1053FC009873A3F598731B681B699A420FD907F52C
:10540C009873A3F598731B681A6AD7F82C31D21AC3
:10541C0007F59873A3F598731B681A620EE007F5ED
:10542C009873A3F598731B681B6AC7F82C3107F5A2
:10543C009873A3F598731B6800221A6207F598738A
:10544C00A3F596731B683B6407F59873A3F59873E3
:10545C001B685B78002B6DD107F59873A3F59673D9
:10546C001B68BB6307F59873A3F596731B68B3F8B9
:10547C0050309BB21A46BB6B1344BB6307F5987351
:10548C00A3F598731B681B781A01BB6B134403F2CA
:10549C000C437B63D7F82C31002B12D17B6B1B8810
:1054AC009BB223F4F8439AB27B6B1A807B6B1B88FC
:1054BC009BB26FEA43436FEA53439AB27B6B1A80F9
:1054CC005DE0D7F82C313E2B17D8D7F82C315B0880
:1054DC00C7F81C31D7F82C3103F00103002B04D092
:1054EC00D7F81C310133C7F81C31D7F81C319BB2EB
:1054FC009B029AB27B6B1A8041E0D7F82C315B0986
:10550C00C7F81C31D7F82C3103F01F03002B04D142
:10551C00D7F81C31013BC7F81C31D7F81C319BB2B2
:10552C009B029BB26FEA43436FEA53439AB27B6B85
:10553C001A8024E007F59873A3F598731B685B78C1
:10554C00012B1CD107F59873A3F596731B68B3F860
:10555C0050309BB21A463B6C13443B6407F598736E
:10556C00A3F598731B681B781A013B6C134403F268
:10557C000C43FB63D7F82C319AB2FB6B1A8007F5FE
:10558C009873A3F598731B685B89A7F8963007F599
:10559C009873A3F598731B685969D7F82C319BB293
:1055AC00B7F8962007F59870A0F59670006801F092
:1055BC008DFA00F05ABC07F59873A3F598731B6825
:1055CC001B6AC7F82C3107F59873A3F596731A6804
:1055DC0007F59873A3F598731B681B789B0013440D
:1055EC001B889BB223F4E24323F07003A7F86230CC
:1055FC0007F59873A3F596731A6807F59873A3F5D6
:10560C0098731B681B789B001A44B7F8623043F000
:10561C007F4343F47F0343F4004343F080039BB286
:10562C00138007F59873A3F596731B68FB6507F554
:10563C009873A3F596731B68B3F850309BB21A4657
:10564C00FB6D1344FB6507F59873A3F598731B6802
:10565C001B781A01FB6D134403F20443BB65D7F8A6
:10566C002C319AB2BB6D1A8007F59873A3F5987319
:10567C001B681B89A7F8963007F59873A3F59873E8
:10568C001B685969D7F82C319BB2B7F8962007F5EF
:10569C009870A0F59670006801F018FAE5E307F52C
:1056AC009873A3F596731A6807F59873A3F5987316
:1056BC001B681B789B0013441B889BB223F4E043AC
:1056CC0023F07003A7F8A83007F59873A3F5967329
:1056DC001A6807F59873A3F598731B681B789B00E1
:1056EC001A44B7F8A83043F07F4343F47F0343F4E4
:1056FC00014343F080039BB2138007F59873A3F525
:10570C0098731B681A6AD7F82C31D21A07F598735C
:10571C00A3F598731B681A6207F59873A3F5967333
:10572C001A6807F59873A3F598731B681B789B0090
:10573C0013441B889BB203F04003002B00F0BC8188
:10574C0007F59873A3F596731B68C7F8803007F5B7
:10575C009873A3F598731B685B78002B6DD107F5D4
:10576C009873A3F596731B68BB6707F59873A3F53D
:10577C0096731B68B3F850309BB21A46BB6F134438
:10578C00BB6707F59873A3F598731B681B781A0110
:10579C00BB6F134403F20C437B67D7F82C31002BFF
:1057AC0012D17B6F1B889BB223F4F8439AB27B6FA8
:1057BC001A807B6F1B889BB26FEA43436FEA53439B
:1057CC009AB27B6F1A8060E0D7F82C313E2B17D839
:1057DC00D7F82C315B08C7F81831D7F82C3103F007
:1057EC000103002B04D0D7F818310133C7F8183156
:1057FC00D7F818319BB29B029AB27B6F1A8044E0A7
:10580C00D7F82C315B09C7F81831D7F82C3103F0D5
:10581C001F03002B04D1D7F81831013BC7F81831FE
:10582C00D7F818319BB29B029BB26FEA43436FEAE5
:10583C0053439AB27B6F1A8027E007F59873A3F550
:10584C0098731B685B78012B1FD107F59873A3F530
:10585C0096731B68B3F850309BB21A46D7F8803059
:10586C001344C7F8803007F59873A3F598731B6839
:10587C001B781A01D7F88030134403F20C43FB67F2
:10588C00D7F82C319AB2FB6F1A8007F59873A3F5F1
:10589C0098731B685B89A7F8963007F59873A3F586
:1058AC0098731B685969D7F82C319BB2B7F89620BE
:1058BC0007F59870A0F59670006801F007F907F5E8
:1058CC009873A3F598731B685A69D7F82C311A444E
:1058DC0007F59873A3F598731B685A6107F59873CD
:1058EC00A3F598731B681A6A07F59873A3F5987358
:1058FC001B681B699A420FD907F59873A3F5987327
:10590C001B681A6AD7F82C31D21A07F59873A3F5CD
:10591C0098731B681A620EE007F59873A3F59873D9
:10592C001B681B6AC7F82C3107F59873A3F598739D
:10593C001B6800221A62D7F82C31002B00F09582DC
:10594C0007F59873A3F598731B685B78002B6DD1E2
:10595C0007F59873A3F596731B68BB6607F59873E8
:10596C00A3F596731B68B3F850309BB21A46BB6E06
:10597C001344BB6607F59873A3F598731B681B78E3
:10598C001A01BB6E134403F204437B66D7F82C3127
:10599C00002B12D17B6E1B889BB223F4F8439AB276
:1059AC007B6E1A807B6E1B889BB26FEA43436FEA57
:1059BC0053439AB27B6E1A8063E0D7F82C313E2B9E
:1059CC0017D8D7F82C315B08C7F81431D7F82C311D
:1059DC0003F00103002B04D0D7F814310133C7F8BE
:1059EC001431D7F814319BB29B029AB27B6E1A8099
:1059FC0047E0D7F82C315B09C7F81431D7F82C31B4
:105A0C0003F01F03002B04D1D7F81431013BC7F866
:105A1C001431D7F814319BB29B029BB26FEA43430B
:105A2C006FEA53439AB27B6E1A802AE007F598739B
:105A3C00A3F598731B685B78012B22D107F598733B
:105A4C00A3F596731B683B6707F59873A3F59673DC
:105A5C001B68B3F850309BB21A463B6F13443B673C
:105A6C0007F59873A3F598731B681B781A013B6FA5
:105A7C00134403F20443FB66D7F82C319AB2FB6E45
:105A8C001A8007F59873A3F598731B681B89A7F800
:105A9C00963007F59873A3F598731B685969D7F876
:105AAC002C319BB2B7F8962007F59870A0F596703C
:105ABC00006801F00BF8D8E107F59873A3F598731B
:105ACC001B685B78002B78D107F59873A3F5967358
