:020000040000fa
:080000000001040000000000f3
:020000040000fa
:040008005e02000094
:020000040000fa
:04000c00a00200004e
:020000040000fa
:04001000e00200000a
:020000040000fa
:040014007e02000068
:020000040000fa
:04001800c002000022
:020000040000fa
:04001c0000030000dd
:020000040000fa
:0400200000030000d9
:020000040000fa
:0400240000030000d5
:020000040000fa
:0400280000030000d1
:020000040000fa
:04002c0000030000cd
:020000040000fa
:0400300000030000c9
:020000040000fa
:040034001c020000aa
:020000040000fa
:0400380000030000c1
:020000040000fa
:04003c0000030000bd
:020000040000fa
:0400400000030000b9
:020000040000fa
:0400440000030000b5
:020000040000fa
:0400480000030000b1
:020000040000fa
:04004c0000030000ad
:020000040000fa
:0400500000030000a9
:020000040000fa
:0400540000030000a5
:020000040000fa
:0400580000030000a1
:020000040000fa
:04005c00000300009d
:020000040000fa
:040060000003000099
:020000040000fa
:040064000003000095
:020000040000fa
:040068000003000091
:020000040000fa
:04006c00000300008d
:020000040000fa
:040070000003000089
:020000040000fa
:040074000003000085
:020000040000fa
:040078000003000081
:020000040000fa
:04007c00000300007d
:020000040000fa
:040080000003000079
:020000040000fa
:040084000003000075
:020000040000fa
:040088000003000071
:020000040000fa
:04008c00000300006d
:020000040000fa
:040090000003000069
:020000040000fa
:040094000003000065
:020000040000fa
:040098000003000061
:020000040000fa
:04009c00000300005d
:020000040000fa
:0400a0000003000059
:020000040000fa
:0400a4000003000055
:020000040000fa
:0400a8000003000051
:020000040000fa
:0400ac00000300004d
:020000040000fa
:0400b0000003000049
:020000040000fa
:0400b4000003000045
:020000040000fa
:0400b8000003000041
:020000040000fa
:0400bc00000300003d
:020000040000fa
:0400c0000003000039
:020000040000fa
:0400c4000003000035
:020000040000fa
:0400c8000003000031
:020000040000fa
:0400cc00000300002d
:020000040000fa
:0400d0000003000029
:020000040000fa
:0400d4000003000025
:020000040000fa
:0400d8000003000021
:020000040000fa
:0400dc00000300001d
:020000040000fa
:0400e0000003000019
:020000040000fa
:0400e4000003000015
:020000040000fa
:0400e8000003000011
:020000040000fa
:0400ec00000300000d
:020000040000fa
:0400f0000003000009
:020000040000fa
:0400f4000003000005
:020000040000fa
:0400f8000003000001
:020000040000fa
:0400fc0000030000fd
:020000040000fa
:0401000000030000f8
:020000040000fa
:0401040000030000f4
:020000040000fa
:0401080000030000f0
:020000040000fa
:04010c0000030000ec
:020000040000fa
:0401100000030000e8
:020000040000fa
:0401140000030000e4
:020000040000fa
:0401180000030000e0
:020000040000fa
:04011c0000030000dc
:020000040000fa
:0401200000030000d8
:020000040000fa
:0401240000030000d4
:020000040000fa
:0401280000030000d0
:020000040000fa
:04012c0000030000cc
:020000040000fa
:0401300000030000c8
:020000040000fa
:0401340000030000c4
:020000040000fa
:0401380000030000c0
:020000040000fa
:04013c0000030000bc
:020000040000fa
:0401400000030000b8
:020000040000fa
:0401440000030000b4
:020000040000fa
:0401480000030000b0
:020000040000fa
:04014c0000030000ac
:020000040000fa
:0401500000030000a8
:020000040000fa
:0401540000030000a4
:020000040000fa
:0401580000030000a0
:020000040000fa
:04015c00000300009c
:020000040000fa
:040160000003000098
:020000040000fa
:040164000003000094
:020000040000fa
:040168000003000090
:020000040000fa
:04016c00000300008c
:020000040000fa
:040170000003000088
:020000040000fa
:040174000003000084
:020000040000fa
:040178000003000080
:020000040000fa
:04017c00000300007c
:020000040000fa
:040180000003000078
:020000040000fa
:040184000003000074
:020000040000fa
:040188000003000070
:020000040000fa
:04018c00000300006c
:020000040000fa
:040190000003000068
:020000040000fa
:040194000003000064
:020000040000fa
:040198000003000060
:020000040000fa
:04019c00000300005c
:020000040000fa
:0401a0000003000058
:020000040000fa
:0401a4000003000054
:020000040000fa
:0401a8000003000050
:020000040000fa
:0401ac00000300004c
:020000040000fa
:0401b0000003000048
:020000040000fa
:0401b4000003000044
:020000040000fa
:0401b8000003000040
:020000040000fa
:0401bc00000300003c
:020000040000fa
:0401c0000003000038
:020000040000fa
:0401c4000003000034
:020000040000fa
:0401c8000003000030
:020000040000fa
:0401cc00000300002c
:020000040000fa
:0401d0000003000028
:020000040000fa
:0401d4000003000024
:020000040000fa
:0401d8000003000020
:020000040000fa
:0401dc00000300001c
:020000040000fa
:0401e0000003000018
:020000040000fa
:0401e4000003000014
:020000040000fa
:0401e8000003000010
:020000040000fa
:0401ec00000300000c
:020000040000fa
:0401f0000003000008
:020000040000fa
:0401f4000003000004
:020000040000fa
:0401f8000003000000
:020000040000fa
:0401fc0000030000fc
:020000040000fa
:100200002f8720000e7f24000e01880000000000d0
:10021000000020000000e000020032000001200089
:100220002002880014000700f70007000000e0002b
:1002300003003a00e01c210001002000020037000a
:100240000000200001002000810f7000010032003a
:1002500014000700000020000000e000020032004f
:100260000000020000000000f60b02000000000089
:100270000040da000000fe004440a900c013200046
:100280000000e00003003200002020009001880000
:100290004440a800000006008a1f78008b1f7800e9
:1002a00000000600a1028800800478000000eb0036
:1002b0001f003700e284440054a0b4009905ba003e
:1002c000e284440054a0b4009906ba00e2844400d9
:1002d00054a0b4000006eb00476fde00fd07b2003b
:1002e000ae018800636ce10003003a00eaff0700fa
:1002f0000000eb000e003700606ce10008003a00df
:10030000004deb000a05e800020039003420ec0043
:100310000af0a0008b05e900f9ff3e000400370059
:100320006168e100010032000086eb000b0007006d
:1003300019c7ba001905ba000e04e00003003a001c
:100340000a00e000dbff3a0000000600fe07b200f2
:10035000ae0288008a047800f5ff37000cd0a300b5
:10036000e20f4d001c00390089027800354dba00bb
:100370000a05e800020039003420ec000af0a00071
:100380008b05e9000f003200254dba000a05e80090
:10039000020039003420ec000af0a0008b05e900cf
:1003a000080032000c00e0000600320015cdba0053
:1003b0000a05e800020039003420ec000af0a00031
:1003c0008b05e9008984e80054a0b4000b00e0002c
:1003d000e2ff3a00000006009902ba00055d7800cd
:1003e0008b05e900f7ff3200c82ade00055d7800c2
:1003f0008b05e900f3ff32000c00e000f1ff320052
:1004000019ddba00eeff37004a10040000000000ba
:10041000bc11040000000000c8110400000000002e
:100420009811040000000000761104000000000094
:10043000cc0c0400000000003600f800809fbe00d5
:10044000829fbe00849fbe00869fbe000000fa000f
:10045000904080000000e0000200320090408000e8
:1004600000000100a0408000b14080006100400019
:10047000e0804800a0408800b1408800108720003c
:10048000104078008040e800108720000148780084
:100490000087200011c0b300014878008860a900df
:1004a0000080fa004f03be004f02be004f01be00a5
:1004b0004f00be003600f900004006003600f8008c
:1004c000809fbe00829fbe00849fbe00869fbe00ac
:1004d0000000fa008020a9000000eb00d10707000f
:1004e0000080fa004f03be004f02be004f01be0065
:1004f0004f00be003600f900004006003600f8004c
:10050000809fbe00829fbe00849fbe00869fbe006b
:100510000000fa00c80707008040a9001000200072
:10052000c00707000080fa004f03be004f02be0064
:100530004f01be004f00be003600f900004006002b
:100540003600f800809fbe00829fbe00849fbe00e0
:10055000869fbe000000fa008060a90020002000f5
:10056000b00707000080fa004f03be004f02be0034
:100570004f01be004f00be003600f90000400600eb
:100580003600f800809fbe00829fbe00849fbe00a0
:10059000869fbe000000fa008080a9003000200085
:1005a000a00707000080fa004f03be004f02be0004
:1005b0004f01be004f00be003600f90000400600ab
:1005c0003600f800809fbe00829fbe00849fbe0060
:1005d000869fbe000000fa008600a900700020007f
:1005e000900707000080fa004f03be004f02be00d4
:1005f0004f01be004f00be003600f900004006006b
:100600000040da000000fe0000000500889fbe00e8
:100610008a9fbe008c9fbe001b0020000202be000d
:100620000586680006002800060666004709de0009
:10063000f20fb200820032000243e8008000320074
:10064000c729de00f30fb2007d0032000343e8004b
:100650007b003200f107b2000170a000f507b20084
:100660000570a000c708dd004903de008680700029
:100670004700dd00c72add004923de0086827200c4
:100680004722dd0003055100040350008583580014
:100690000300310000004000818048000a05e900a5
:1006a0008c1f78008a9fbe0004005000858058008f
:1006b0000402420085824a00000040008180480018
:1006c0000005eb000004be006033b8000406be0065
:1006d0000d48e10056003100110009004dccd80052
:1006e0000c01b8000d02b8008481410060824a000c
:1006f0008283530003045c0084845c0060055d0019
:100700000a00e00025003a00800578000d40e10075
:1007100049003100880078000700780011000900c6
:100720004d88d8000c01b8000d02b800848141004a
:1007300060824a006003110083835b0004045c0054
:10074000e0845c000900e00021003a004f01be0097
:100750000300e0002b003200e30160000706730095
:100760008c81710001003200640070004200de00e4
:100770004e5edd000c007000c258de0001e0a000fb
:100780009b000700cf017800818071004f06be00fa
:100790004f05be004f04be00000006008c834300de
:1007a0000d044c00e0844c0060054d000000e900a1
:1007b0000a00e000d4ff32008c8343000d044c009b
:1007c000e0844c0060054d000000e900ceff3700da
:1007d0000c0343008d834b0060044c00e0844c000c
:1007e0000000e9000900e000d8ff32000c034300dc
:1007f0008d834b0060044c00e0844c000000e90055
:10080000d2ff37004200de004e5edd000c007000bb
:10081000c258de0001e0a000cf0178000300e00034
:10082000daff320060001000e0801800d7ff3700c8
:10083000f0ff2f00aaff3700f0ff2f00b9ff3700ad
:100840000404be0050000700870678000004fd0085
:100850008104fd004c000700078366000678a300b2
:10086000030032000960a7000800be002c0037001a
:100870000d78a300020032000800be0028003700f7
:100880000778a30026003a0001f0a10009f0a100ba
:100890000668a30003003200f1ff2700f0ff2f00dd
:1008a000baff37000d68a300030032000800be0045
:1008b0008c807000b5ff37000768a30007003a007e
:1008c0000648a30003003200f1ff2700f0ff2f00cd
:1008d000aeff37000d48a300030032006000b800ef
:1008e0008c807000a9ff37000748a3000400320085
:1008f00001f82700000020008c807000a3ff370063
:100900008e0007000004fd008104fd000205780050
:100910008a0007000802be008a01780059ff3700ec
:100920000160a00012022000d240880097ff37002b
:100930000100e000120032000500e000100032006b
:10094000889fbe008a9fbe008c9fbe000006eb0001
:1009500001f8a3000300320060001000e0801800de
:100960000cf0a00005f8a3000300320060021200a2
:10097000e0821a000cf0a2008005eb0041ff370076
:100980006000b800020005002700200001f0a70069
:1009900017002000470bde00f60fb2000400320003
:1009a0000643e8000a0032004702b30000000600d8
:1009b00001037800f607b2000603700002003a0057
:1009c0000703b300000006008702b3000000060022
:1009d00001037800f607b20006037000020032003f
:1009e0000770a000000006000760a00000000600dd
:1009f00081017000270032008002eb0001f8a300a3
:100a00000300320060001000e08018001500200094
:100a1000f40720000202420020003400f703200007
:100a20008703600006042000000363000208200022
:100a3000000161004700de00c909dd00008071008f
:100a4000c708de000600e0000800320087037100de
:100a5000060032001000b0000180b0000188a30041
:100a600002003200c108de000402e800f107b20013
:100a7000f30f20000320e10003003d004722dd00ca
:100a8000810072002900370001f827000000eb0008
:100a9000260037006000b80000000600680212005f
:100aa0007f20e100020034006000b8001f00370022
:100ab0006011b8007020e10004003500800178006a
:100ac000010078008000eb00700252000400e0009a
:100ad00009003400f00312000719dd008419de005c
:100ae0000703dd00868171000400de00070bdd00d6
:100af000060070008408de00f7ff27008383630090
:100b0000870371000600280003036300070032001a
:100b10000700e00003003a006101600002817300f9
:100b2000020032001000b0000180b0000500a600f5
:100b30000000060001f0a000000006004f0ade00e1
:100b40004709de00f107b200f20fb2000b003200dd
:100b5000f207b1000170a000c708dd00c901de0086
:100b6000838070004700dd000400a600000006003e
:100b700060001000e080180000000600810f700087
:100b800001003a00000006008182cf000500e0006d
:100b900010003e008082cf00ee8242007028e1000b
:100ba0000400390007003e00800078000000eb00e0
:100bb0000e003700708312008600de000500dd00a5
:100bc0000a003700708352008600dd000000eb0051
:100bd00006003700e28252008508dd0070831200b3
:100be0000603de00868070000500dd007507b0009a
:100bf0000501ea000400a6000000060060001000e5
:100c0000e080180000000600889fbe008a9fbe009a
:100c1000800478000200e0005a00320001407800b1
:100c2000814c780082814400f1f99f00e20f51006d
:100c30005400360091449800a1449800e1f99f00c7
:100c4000d1f99f00e60f51004e003600b1449800e4
:100c5000c1f99f00e80f51004a0036000905ea007b
:100c6000630565000a8444000a055100c1ff2f0096
:100c7000010565000080fb008000eb0012102000e1
:100c8000131020007f000700008cbe000a01440002
:100c900060b99f0071b99f00e80f55003900360018
:100ca00020049800310498004004980051049800f2
:100cb00020b99f0031b99f0040b99f0051b99f00f2
:100cc000f80f55002f00360060049800710498005a
:100cd000000c9800110c9800200c9800310c980022
:100ce000400c9800510c980020b19f0031b19f003a
:100cf00040b19f0051b19f0060b19f0071b19f0052
:100d000000b99f0011b99f0064016400780141009f
:100d100002044400020555006011b8000203be0041
:100d20000002be000403be006022b8000000720092
:100d30008180720002017300838173000f0037000d
:100d400008027800009abe00029abe00009abe0017
:100d50000292be00000c9800110c9800220c980022
:100d6000330c9800400c9800510c9800620c9800cd
:100d7000730c98000a02b1000802b000ff0f550082
:100d8000efff3e00090078004f05be004f04be0093
:100d900000000600881f7800000478000800780032
:100da00003000700080078004f04780000000600e8
:100db000881f780081017800000278008082680036
:100dc0000508a30002003200210037000201e900fb
:100dd00003007800040478000308a3000700320031
:100de0000200e00021003200b3407800015a780090
:100df0000104e000f5ff3a00020037000200e000c5
:100e00001a0032001004e00003003a001700370017
:100e1000031c78000281e90080007800e10f510096
:100e200008003600b0017800f5ef2f008382420001
:100e30000382ea00048262000508280005026200bd
:100e4000f3ff320008007800010037000201e900da
:100e5000000478000200e00004003200b141780094
:100e6000035878000304e000f8ff3a008000eb002c
:100e70000800780064ff0700080078004f0478003d
:100e800000000600020ab900001bb9000200b80009
:0c0e9000810042008100430000000600c9
:020000040000fa
:100e9c000001000002030000040500000608000029
:100eac006368000069700000206e0000616d000036
:100ebc00653a000020090000257300000a0d0000af
:100ecc00004d0000616e000075660000616300005b
:100edc007475000072650000723a00002009000071
:100eec00257300000a0d0000004900006e7400001c
:100efc006572000066610000636500003a20000026
:100f0c0009250000730a00000d0000005375000055
:100f1c00707000006c790000206d0000617800009a
:100f2c00207600006f6c00007461000067650000a3
:100f3c003a20000009250000302e00003266000027
:100f4c00560a00000d000000537500007070000080
:100f5c006c790000206d0000696e000020760000a6
:100f6c006f6c000074610000676500003a2000009f
:100f7c0009250000302e000032660000560a0000e1
:100f8c000d000000546500006d70000065720000db
:100f9c006174000075720000652000004d61000056
:100fac00783a000020090000252e00003166000070
:100fbc00430a00000d000000447200006976000036
:100fcc0065720000207600006572000073690000f5
:100fdc006f6e00003a20000009560000252e00001c
:100fec00316600000a0d000000000000777300005d
:100ffc003238000031320000623a000020640000f8
:10100c00656c0000617900005f6d000073200000ca
:10101c0069730000206e0000756c00006c2e0000df
:10102c000a000000777300003238000031320000f3
:10103c00623a000020670000706900006f20000019
:10104c006469000067690000746100006c20000096
:10105c007772000069740000652000006869000068
:10106c006768000020690000732000006e750000a6
:10107c006c6c00002c2000000a000000777300004c
:10108c003238000031320000623a00002067000064
:10109c00706900006f20000064690000676900003f
:1010ac00746100006c20000077720000697400000d
:1010bc00652000006c6f0000772000006973000051
:1010cc00206e0000756c00006c2c0000200a0000e3
:1010dc00005700005332000038310000324200004b
:1010ec00005700006f7200006c6400007365000014
:1010fc006d690000004f00006e6500002057000075
:08110c0069720000650000009b
:020000040000fa
:101114000200fa00000f78001e0078000000e000d2
:1011240002003a0020c0b300350037001e007800ea
:1011340066004000100078000000e00002003a0061
:1011440030c0b3002e0037001e0078006400400059
:10115400100078000000e00009003a001e0078004a
:101164006600400090007800c07f2800801f78004f
:10117400010001008f87e90030c0b3002000370070
:101184001e007800100078000000e00009003a001a
:101194001e007800660040009000780080812800de
:1011a400801f7800010001008f87e90030c0b30080
:1011b400130037001e0078000080e800100078005b
:1011c4000000e00009003a001e00780066004000bc
:1011d4009000780040842800801f780001000100fe
:1011e4008f87e90030c0b300050037001e00780087
:1011f40011c0b3006e004000014878000040eb00cd
:101204000080fa00000006000600fa000e81e800e3
:1012140000097800640047000148780081c0b300e9
:101224000e00e800014878000040eb00004f780011
:101234001200370064004700104078008080fb00f3
:1012440000042000008060000000e000050032007f
:101254000e80e80010007800100078000000010003
:10126400050037000e80e800100078000080e800d8
:1012740010007800000001001e4fe8000e00e80096
:10128400104078009e40780080cf5000e9ff39007c
:101294000080fa00000006000800fa00640147001c
:1012a40000097800660047000108780000c0eb00e0
:1012b400004f780080c0eb000e00e8000148780081
:1012c40080c0eb000e80e80001487800640047000d
:1012d400100078000000e00002003a0020c0b300d3
:1012e400a800370064004700100078006e0040003a
:1012f40010407800e14f50000200320030c0b300cb
:10130400a00037006600470010007800e40f50008a
:101314004b003200e40f500009003e00e10f500082
:101324002c003200e10f50000e003900e20f500093
:101334001a003200e30f50003300320090003700ef
:10134400e60f50004d003200e60f50005a003900fd
:10135400e70f500066003200e80f500071003200c1
:10136400870037008040eb006400470010007800dd
:10137400a5ff07000e00e8009040780064004700d5
:1013840010007800a0ff07008040eb0064004700d5
:10139400100078009cff0700790037008040eb00c4
:1013a400640047001000780097ff07008040eb00be
:1013b400640047001000780093ff07000e80e800e7
:1013c4009040780064004700100078008eff07000a
:1013d4006b0037009e4078006400470010007800de
:1013e40089ff07008040eb0064004700100078008c
:1013f40085ff07008040eb00640047001000780080
:1014040081ff07005e0037009e40780064004700bb
:10141400100078007cff07000e00e8009040780080
:10142400640047001000780077ff07008040eb005d
:10143400640047001000780073ff07005000370075
:101444008040eb0064004700100078006eff070046
:101454000e00e80090407800640047001000780017
:1014640069ff07000e80e8009040780064004700a0
:101474001000780064ff0700410037009e407800a8
:1014840064004700100078005fff07000e00e800ca
:101494009040780064004700100078005aff07006d
:1014a4000e80e80090407800640047001000780047
:1014b40055ff0700320037009e4078006400470063
:1014c4001000780050ff07008040eb0064004700e4
:1014d400100078004cff07000e80e8009040780070
:1014e400640047001000780047ff0700240037001d
:1014f4008040eb00640047001000780042ff0700c2
:101504008040eb0064004700100078003eff0700b5
:101514008040eb0064004700100078003aff0700a9
:10152400170037008040eb0064004700100078008b
:1015340035ff07000e00e800104078000080fb0033
:101544000000d1000040780080407800640047002b
:10155400100078002cff07000e80e800104078008f
:101564000080fb000000d10000407800804078003b
:10157400640047001000780023ff0700000000000b
:101584000040eb000080fa00000006000800fa00aa
:101594008e81e80080097800640047000108780023
:1015a40066004700020878000000eb00000f780096
:1015b4001a00370066004700100078000000e800b9
:1015c40010407800804078000e80e8001000780019
:1015d4000dff0700660047001000780010407800f7
:1015e400804078000e80e8001000780006ff0700b5
:1015f40066004700100078000080e8001040780082
:10160400804078000e80e80010007800fefe07009d
:101614001e0078000000e800000f78009e007800ab
:101624006400470010007800808f5000e1ff39000b
:101634000040eb000080fa00000006000600fa00fb
:101644000e81e80000097800640047000108780072
:101654000e80e800100078000000e00002003a006c
:1016640020c0b300260037000e80e8001000780088
:101674006e00400010407800e14f5000020032003c
:1016840030c0b3001e0037000e80e8001000780060
:1016940068004000e4004700110878000000eb00f7
:1016a400000f780007003700710020000e80e8006a
:1016b40010007800f8fe07001e0078000000e80023
:1016c400000f78000e80e8001000780068004000e9
:1016d400900078001e007800808f5000f2ff3e00da
:1016e4000e80e800100078006400400010017800cb
:1016f400a000200001002000020001000040eb00d7
:101704000080fa00000006000200fa00000f7800d2
:101714001e0078000000e00002003a0020c0b30080
:101724002f003700020520008000eb001e00780027
:1017340034fd07001e00780092012000f186280085
:1017440093fd07009e00780079804000420120004c
:10175400718728008efd0700210320001e804000b1
:10176400a20020001188280089fd07001e017800ce
:101774003033230031052400c203b0000089be00c9
:101784001e017800a0992900910a24000204b000e7
:101794000089be001e007800c10320004004b00090
:1017a400010878001e01780000002000012a2400ae
:1017b4008204b0000089be001e0078008040eb0067
:1017c4006004b000014878001e0178000000200089
:1017d40061492400c204b0000089be000040eb004f
:1017e4000080fa00000006005400fa0020030700fd
:1017f400007d2000010020009400070080012000eb
:101804008d01070064004700bfff07006400470024
:10181400801f780060752800801f7800db020700b5
:10182400e48757006400470079004000801f780077
:1018340070762800801f7800d4020700e4875700e0
:10184400640047002003b000801f7800b0772800b0
:10185400801f7800cd020700e48757004004200071
:101864000e0040001000be00809fbe00c07828001b
:10187400801f7800c5020700e68757000004200097
:101884000e0040001000be00809fbe00a07a280019
:10189400801f7800bd020700e6875700c0042000bf
:1018a4000e0040001000be00809fbe00807c280017
:1018b400801f7800b5020700e68757000005200066
:1018c4000e0040001000be0002002000a3472400c8
:1018d4004dfb0700809fbe00207e2800801f7800fb
:1018e400aa020700e68757000040800011408000ec
:1018f4000002be00421f200003002000c0cc2000d4
:10190400750007000000eb00000f78001d00370091
:10191400110020000e80e800010878001100370053
:10192400200320000100200092020700e074280038
:101934001e004000104078000080fb008e80e8000c
:10194400110178008000780002007800600107002f
:101954000e80e800100078008000e8000e80e800a7
:10196400010878000e80e80010007800f80f50009d
:10197400ebff340020032000010020007d0207005b
:101984001e0fe8001e007800e70f5000e0ff36004d
:10199400d5ff37000000fa00703480004500de00f7
:1019a400614060000004a200614060000080fb0010
:1019b400610060004500dd00713480000150a10029
:1019c40001007000703488001b000700004088008c
:1019d400114088000080fa00000006000200fa00ae
:1019e400000f78000cc8bf000004e00004003200bf
:1019f400710020006000200035010700040037005a
:101a04001e0078008000780060002000300107008c
:101a14000cc8bf000004a2000080fb000040780056
:101a24000ce8b7000400070020408800314088001b
:101a34000080fa00000006000000fa00a0408000c8
:101a4400b14080000080fa00000006000800fa009f
:101a5400640147000089be00f7ff0700008fbe0045
:101a640000000000f4ff07000001be001e00be00dd
:101a74000001510081815900640047001000be003c
:101a840065005000e0805800800f5100818f59009c
:101a9400f4ff3900e8ff07000001be001e00be008d
:101aa4000001510081815900640047001000be000c
:101ab40065005000e0805800800f5100818f59006c
:101ac4000200310010c0b300010037000040eb00f9
:101ad4000080fa00000006000c00fa008e80e80086
:101ae40080087800640047000288be006800470050
:101af4000488be000040eb00004f7800ceff0700d2
:101b04000001be00680047001000be000001510043
:101b140081815900640047001000be006500500038
:101b2400e0805800800f5100818f59000500360075
:101b34000e80e800100078000000010010c0b3001f
:101b4400004f78001e4078000080fa000000060074
:101b54000c00fa008e80e8008008780064004700da
:101b64000288be00680047000488be000040eb0005
:101b7400004f7800b0ff07000001be006800470076
:101b84001000be000001510081815900640047002b
:101b94001000be0065005000e0805800800f510026
:101ba400818f5900050036000e80e800100078008f
:101bb4000000010010c0b300004f78000040eb00ab
:101bc4000080fa00000006000e00fa000e83e80010
:101bd400000b7800640047000288be0068004700dc
:101be4000488be006c004700010878000040eb0048
:101bf400004f780090ff07000001be006800470016
:101c04001000be00000151008181590064004700aa
:101c14001000be0065005000e0805800800f5100a5
:101c2400818f5900070036000e80e800900078008c
:101c34006c004700100078000100010010c0b300e0
:101c4400004f78000040eb000080fa00000006001e
:101c54000000fa0080002000c01c88009a23ef00d6
:101c640020022000001d8800a223ef0099e3a800b1
:101c74009b43a8000080fa00000006000000fa0060
:101c840000000000d01c8000610060000000e00043
:101c9400fcff3200d01c8000620060000000e00005
:101ca400010032009a23a900f01c80000040780053
:101cb4000080fa00000006000200fa00004f7800dd
:101cc40000000000d11c8000002020000080600083
:101cd4000000e000fbff3a001e80fb00e01c8800cf
:101ce4000080fa00000006000000fa00d01c80000a
:101cf40000407800614060000080fb0000f0a70015
:101d04000000ea000000ea004f00de000040780016
:101d14000080fa00000006000000fa00d11c8000d8
:101d240000202000008060000000e00007003a006e
:101d3400d11c800000402000008060000000e00012
:101d44000200320010002000010037000000eb0008
:101d5400004078000080fa00000006000000fa004d
:101d6400d01c80004800de00614060000080fb0061
:101d740000f0a7000000ea000000ea004f00de00c7
:101d8400004078000080fa00000006000400fa0019
:101d94008e80e800800878000000eb00000f7800d7
:101da4000e00370000000000d11c8000002020003d
:101db400008060000000e000fbff3a009e00780015
:101dc4000e80e80010007800010040001040780008
:101dd4000080fb00e01c88001e0fe8009e007800d5
:101de4000e80e800100078000100400010407800e8
:101df4000004e000ebff3a000080fa000000060057
:101e04000000fa00d01c80000080fa0000000600e8
:101e14000000fa0099e3a8009b43a8000080fa00a0
:101e2400000006000000fa0099e3a9009b43a90002
:101e34000080fa00000006000400fa008e80e8002a
:101e440080087800020120008000eb00c08320009d
:101e54006cfb0700c01b210000428800801c21008d
:101e64001042880080192100e04188006017210099
:101e7400f0418800c0832000a5fc0700004f7800d3
:101e84001e4078000004e0000200320010c0b300dd
:101e94000d0037000e80e8001000780031000700c4
:101ea400004f78001e4078000004e0000200320079
:101eb40010c0b30004003700a0002000010020007f
:101ec4002c0107000040eb000080fa00000006002f
:101ed4000800fa0064014700000978006600470022
:101ee400010878008000eb000e80e800010878000b
:101ef4000b0037006600470090007800c083200084
:101f0400e5fc07000080fb00000f78000e80e8006d
:101f1400100078008000e8000e80e80001087800d6
:101f24000e80e800900078006400470010007800fc
:101f3400808f5000efff3900a00020000100200036
:101f44000c0107001e0078000000e00002003200cf
:101f540010c0b300010037000040eb000080fa001d
:101f6400000006000400fa008e80e8008008780073
:101f74000e80e80090007800c0832000affd0700c9
:101f8400004f78001e4078000040eb000080fa000b
:101f9400000006000600fa000e81e800000978003f
:101fa40064004700010878006400470010017800cd
:101fb4000e80e80090007800c083200073fd0700c5
:101fc400004f7800a000200001002000e900070075
:101fd4001e4078000040eb000080fa00000006007c
:101fe4000000fa009021ef00f0e72300900c880035
:101ff40000002800a00c8800904080000000e00051
:1020040002003a00a0042100240007008860a9000f
:102014009860a800008720008040eb000148780009
:102024000080fa00000006000200fa00000f7800a9
:102034009e007800910c8800008720008040eb000f
:10204400014878000080fa00000006000000fa0051
:10205400900c80000080fa00000006000200fa00e4
:10206400000f78009e007800810c88000087200013
:102074008040eb00014878000080fa000000060070
:102084000000fa00800c80000080fa0000000600c6
:102094000000fa000080fa00000006000200fa00c6
:1020a400000f78009860a9009e0078009140880095
:1020b4009860a8000080fa00000006000000fa0002
:1020c400008720008040eb00014878009860a80059
:1020d40095e1a8000080fa00000006000000fa0064
:1020e40095e1a9009860a9000080fa0000000600ac
:1020f4000200fa0000872000104f78001e4078008c
:102104000004e00003003200008720008040eb0060
:10211400014878001e4078000080fa0000000600a4
:102124000000fa0010872000104078000080fb00b7
:102134000080fa00000006000000fa00108720006a
:102144008040eb00014878000080fa00000006009f
:102154000000fa006626ef007a26ef000010200047
:102164007034880070f9270010338800f0df2f00e6
:10217400b0338800f02d2000503488007426ef001e
:102184008826ef009c26ef007226ef008626ef00db
:102194009a26ef006826ef007c26ef009026ef00d9
:1021a400f000200050338800c0002f00f033880076
:1021b400f00020009034880001088000f00b20001b
:1021c40000816000600420007105200003102000dd
:1021d400804978008149780082497800613f800015
:1021e40000f82f00008060003000b300603f8800da
:1021f400a13d800000fc2f00008060009001b3002e
:10220400a03d880000088000000178000260a00062
:10221400600420007105200003102000804978002c
:1022240081497800824978000080fa0000000600a5
:102234000000fa0000002300100888000621ef00c7
:102244006821ef006a21ef000821ef0000702000f0
:10225400500888000c21ef000e21ef007821ef00d8
:102264007a21ef007c21ef007e21ef008021ef0036
:102274008221ef008421ef008621ef00120020006c
:1022840080072000a1092000131020008049780055
:1022940081497800824978001200200060042000ff
:1022a40071052000031020008049780081497800de
:1022b400824978000000000000088000610060008e
:1022c4000000e000fcff3a0000000000010880006c
:1022d40000022000008060000000e000fbff3200ec
:1022e4000080fa00000006000200fa00000f7800e7
:1022f4007b26a80000000000000000000000000091
:102304000000000000000000000000007b26a9007f
:1023140000000000000000000000000000000000b9
:10232400000000000080fa00000006000200fa002d
:10233400000f78007b26a8000000000000000000c9
:102344000000000000000000000000000000000089
:102354000000000000000000000000000000000079
:1023640000000000000000007b26a9000080fa00a5
:10237400000006000400fa00008fbe001e00be002c
:10238400b2fd07000080fa00000006000000fa0019
:082394000080fa0000000600c1
:020000040000fa
:10239c00700800000200000080000000120800001d
:1023ac0006000000800000001c0800002000000057
:1023bc0080000000180800000200000082000000ed
:1023cc00ffff00003c08000010000000800000002f
:1023dc004c08000010000000800000006c08000099
:1023ec00040000008200000000ffc8000000000094
:1023fc005c080000100000008000000000080000d5
:10240c0012000000800000001a080000020000000a
:08241c00800000000000000038
:020000040000fa
:102424000200fa00000f78009e007800c140880086
:10243400ffff37000000fa00c08120008007780009
:1024440040832000000188000080fa00000006009c
:102454000000fa0041058000f0ff280000806000c1
:1024640000c0a000400588000080fa0000000600bb
:102474000000fa0036ff07006dff0700f4ff0700b5
:10248400d7fe0700f2fd07000080fa0000000600f6
:020000040000fa
:020000040002f8
:04be0000ffffff0041
:020000040000fa
:020000040002f8
:04be2000ffffff0021
:020000040000fa
:020000040002f8
:04be300060ffff00b0
:020000040000fa
:020000040002f8
:04be380063ffff00a5
:020000040000fa
:020000040002f8
:04be40009fffff0061
:020000040000fa
:020000040002f8
:04be4800ffffff00f9
:020000040000fa
:020000040002f8
:04be5000dfffff0011
:020000040000fa
:020000040002f8
:04be5800ffffff00e9
:00000001FF
